:020000040800F2
:103000000000012021A00008296600082B660008A6
:103010002D6600082F6600083166000800000000D9
:1030200000000000000000000000000035660008FD
:1030300033660008000000003766000839660008A3
:103040003D6600083F6600084166000843660008C8
:103050004566000847660008496600084B66000898
:103060004D6600084F660008516600080000000029
:103070000000000000000000000000000000000050
:1030800000000000000000006166000863660008A0
:103090006566000867660008696600086B660008D8
:1030A0006D6600086F6600087166000873660008A8
:1030B00075660008AD660008AF660008B1660008D6
:1030C000B3660008B5660008B7660008B966000870
:1030D000BB660008BD660008C1660008C36600083C
:1030E000C7660008C9660008CB660008CD66000800
:1030F000CF660008D1660008D3660008D5660008D0
:10310000D7660008D9660008DB660008DD6600089F
:10311000DF660008E1660008E5660008E76600086B
:10312000E9660008EB660008ED660008EF66000837
:043130005FF8000044
:10313800613870B5032800F25981DFE810F0040007
:103148006B00A400E700AA4C032003F0DFFB2088F3
:1031580004F0F6FB032003F0D9FBA649206B07F027
:103168005BFD07F01FFF80B204F0EAFB032003F0C9
:10317800CDFBA049606B07F04FFD07F013FF80B24D
:1031880004F0DEFB032003F0C1FBA08804F0D8FBA9
:10319800032003F0BBFB9749A06B07F03DFD07F048
:1031A80001FF80B204F0CCFB032003F0AFFB2089C1
:1031B80004F0C6FB032003F0A9FB8E49E06B07F07F
:1031C8002BFD07F0EFFE80B204F0BAFB032003F0FA
:1031D8009DFB8849206C07F01FFD07F0E3FE80B2D5
:1031E80004F0AEFB032003F091FB8249606C07F00A
:1031F80013FD07F0D7FE80B204F0A2FB00250320E0
:1032080003F084FB63199889043504F099FB242D95
:10321800F5D170BD0024784D032003F077FB605989
:10322800744907F0F9FC07F0BDFE043480B204F0DD
:1032380087FB0C2CEFD10024704E032003F066FBB3
:10324800305B043404F07CFB2C2CF5D100240320E3
:1032580003F05CFB2B19D868664907F0DDFC07F022
:10326800A1FE043480B204F06BFB0C2CEFD10024D7
:10327800032003F04BFB3319988D043404F060FBF2
:103288002C2CF5D170BD5A4C032003F03FFB594953
:10329800D4F8B80007F0C0FC07F084FE80B204F050
:1032A8004FFB032003F032FB5249D4F8BC0007F06F
:1032B800B3FC07F077FE80B204F042FB032003F072
:1032C80025FBB4F8C40004F03BFB032003F01EFB0D
:1032D8004849D4F8C00007F09FFC07F063FE80B2AD
:1032E80004F02EFB032003F011FBB4F8C80004F02F
:1032F80027FB0024032003F009FB414B23441889D2
:10330800043404F01DFB602CF4D170BD384C03204C
:1033180003F0FCFAB4F82C0104F012FB032003F0CC
:10332800F5FA3449D4F8600107F076FC07F03AFE64
:1033380080B204F005FB032003F0E8FA2D49D4F825
:10334800640107F069FC07F02DFE80B204F0F8FA7A
:10335800032003F0DBFAB4F8300104F0F1FA03209B
:1033680003F0D4FA2349D4F8680107F055FC07F0B4
:1033780019FE80B204F0E4FA032003F0C7FAB4F8A7
:10338800340104F0DDFA032003F0C0FA1949D4F837
:103398006C0107F041FC07F005FE80B204F0D0FA9A
:1033A800032003F0B3FA1349D4F8700107F034FC92
:1033B80007F0F8FD80B204F0C3FA032003F0A6FA80
:1033C800D4F874010B4907F027FC07F0EBFD80B235
:1033D80004F0B6FA0024032003F098FA094B2344BA
:1033E8009889043404F0ACFA282CF4D170BD00BFDD
:1033F8000C05002000002041540500206C05002029
:10340800D00500203806002008B504F0B6FA0128D7
:10341800FBD104F02DFB08BD6138F8B5032800F294
:103428003381DFE800F0026399C7FFF7EDFF974C9F
:1034380000252060FFF7E8FFB0F5004FA8BFA0F512
:10344800803007F095FB924907F09AFC2063FFF75C
:10345800DBFFB0F5004FA8BFA0F5803007F088FB70
:103468008B4907F08DFC6063FFF7CEFF6060FFF7C4
:10347800CBFFB0F5004FA8BFA0F5803007F078FB70
:10348800834907F07DFCA063FFF7BEFFA060FFF74C
:10349800BBFFB0F5004FA8BFA0F5803007F068FB70
:1034A8007B4907F06DFCE063FFF7AEFFB0F5004F16
:1034B800A8BFA0F5803007F05BFB754907F060FCFA
:1034C8002064FFF7A1FFB0F5004FA8BFA0F580303A
:1034D80007F04EFB6E4907F053FC6064FFF794FF5A
:1034E80063190435242DD860F8D1F8BD0024FFF7FE
:1034F8008BFFB0F5004FA8BFA0F5803007F038FB70
:10350800634907F03DFC634D285104340C2CEED17F
:103518000024FFF779FF604B185104342C2C1E4609
:10352800F7D10024FFF770FFB0F5004FA8BFA0F552
:10353800803007F01DFB564907F022FC2F19043490
:103548000C2CF860EED10024FFF75EFF3319043429
:103558002C2CD862F8D1F8BDFFF756FF07F008FB0E
:103568004B4907F00DFC494CC4F8B800FFF74CFF75
:1035780007F0FEFA464907F003FCC4F8BC00FFF761
:1035880043FFC4F8C400FFF73FFF07F0F1FA4049D2
:1035980007F0F6FBC4F8C000FFF736FFC4F8C80010
:1035A8000024FFF731FF3D4B23440434602C98601E
:1035B800F7D1F8BDFFF728FF344CC4F82C01FFF70A
:1035C80023FFB0F5004FA8BFA0F5803007F0D0FA70
:1035D8002F4907F0D5FBC4F86001FFF715FFB0F5D8
:1035E800004FA8BFA0F5803007F0C2FA284907F0BD
:1035F800C7FBC4F86401FFF707FFC4F83001FFF701
:1036080003FFB0F5004FA8BFA0F5803007F0B0FA6F
:103618001F4907F0B5FBC4F86801FFF7F5FEC4F8C9
:103628003401FFF7F1FEB0F5004FA8BFA0F58030D8
:1036380007F09EFA164907F0A3FBC4F86C01FFF7E0
:10364800E3FEB0F5004FA8BFA0F5803007F090FA70
:103658000F4907F095FBC4F87001FFF7D5FEB0F5E8
:10366800004FA8BFA0F5803007F082FA084907F09C
:1036780087FBC4F874010024FFF7C6FE084B2344F7
:103688000434282CD860F7D1F8BD00BF0C05002001
:1036980000002041540500206C050020D0050020C2
:1036A80038060020FE201821002203F0B9BCFE20B5
:1036B8001821012203F0B4BC2DE9F04F83468BB0EA
:1036C80008469A46144606F033FE8046894607F0B7
:1036D800CBFCCDE90001204606F02AFE06460F463F
:1036E80007F0C2FC04460D4622462B46DDE90001E0
:1036F80006F072FE07F032F94946CAF80000404663
:1037080007F046FDCDE9020107F028F900F1004075
:10371800CAF804003946304607F03AFD8046894623
:1037280042464B46DDE9000106F056FE07F016F961
:10373800CAF80800584606F0FBFD06460F4607F093
:1037480027FDCDE904013046394607F08DFC2246B5
:103758002B4606460F4606F03FFE4246CDE90601D7
:10376800DDE904014B4606F037FEDDE90223CDE929
:103778000801DDE9060106F02FFE02460B46DDE9E9
:10378800080106F077FC07F0E9F8DDE90023CAF83C
:103798000C003946304606F01FFE07F0DFF8DDE979
:1037A8000423CAF810002946204606F015FEDDE974
:1037B800022304460D463046394606F00DFE4246C1
:1037C8004B4606F009FE22462B4606F051FC07F050
:1037D800C5F82946CAF81400DDE90223204606F098
:1037E800FBFD424604460D464B463046394606F038
:1037F800F3FD02460B462046294606F039FC07F041
:10380800ADF8DDE90423CAF81800DDE9000106F087
:10381800E3FD07F0A3F8DDE90223CAF81C00DDE99F
:10382800040106F0D9FD42464B4606F0D5FD024696
:103838000B46DDE9060106F01DFC07F08FF8CAF813
:1038480020000BB0BDE8F08F70B506460D46006845
:103858000968144607F0D6F820606968706807F0B0
:10386800D1F86060B068A96807F0CCF8A06070BDB6
:10387800F8B505460C4600680968164607F0CCF905
:1038880061680746686807F0C7F90146384607F0D7
:10389800BBF8A1680746A86807F0BEF90146384694
:1038A80007F0B2F830602168E86807F0B5F9616898
:1038B8000746286907F0B0F90146384607F0A4F82A
:1038C800A1680746686907F0A7F90146384607F076
:1038D8009BF870602168A86907F09EF9616807463F
:1038E800E86907F099F90146384607F08DF8A168AC
:1038F8000746286A07F090F90146384607F084F829
:10390800B060F8BD2DE9F84F446883468A462046E2
:10391800214607F081F901464FF07E5007F072F812
:1039280006F006FD07F080FC064620460F4606F026
:10393800FFFC04460D463046394607F00FF806F0FE
:10394800F7FC02460B462046294607F06BFC064664
:10395800DBF810000F4600F1004006F0E9FC0446D1
:10396800DBF81C000D4606F0E3FC02460B46204639
:10397800294607F057FC0446DBF808000D4606F018
:10398800D7FC8046DBF80000894606F0D1FC0246E9
:103998000B464046494607F045FC06F0DFFF09495B
:1039A80007F030F83946CAF80000304606F0D6FF6E
:1039B8002946CAF80400204606F0D0FFCAF80800D5
:1039C800BDE8F88FD80F493F2DE9F04FAC4BA9B0AF
:1039D8001393AC4B8B460446089214930846002375
:1039E80013A916AA1593FFF743FF19AA204616A98B
:1039F800FFF72AFF199F1A9E384606F099FC0446DD
:103A080030460D4606F094FC02460B4620462946F1
:103A1800DDF86C8007F006FC06F0A0FF00F100401E
:103A28000F903946384607F0F7F8314607463046D2
:103A380007F0F2F841460646404607F0EDF83946E9
:103A480006F0E2FF314606F0DFFF06F071FC07F0F2
:103A5800EBFB06F083FF0146814607F0DDF88A4953
:103A680006F0D0FF884900F1004007F089F90146C7
:103A7800824607F0D1F801464FF07E5006F0C2FFAB
:103A880006F056FC07F0D0FB06F068FF06F050FC85
:103A9800044650460D4606F04BFC02460B462046AF
:103AA800294607F0BFFB02460B4673A1D1E9000186
:103AB80006F0DEFA06F052FF7449824606F0A4FFCB
:103AC80000F1004010903146384606F09DFF06F0A0
:103AD8002FFC04460D4607F0A7FB064648460F464E
:103AE80006F026FC02460B463046394606F074FCC2
:103AF80002460B462046294606F098FD06F02EFFA2
:103B08000146814607F088F801464FF07E5006F0DE
:103B180079FF06F00DFC07F087FB064640460F4686
:103B280006F006FC3046002939464FF00004584D8F
:103B3800BCBF0024574D06F011FF06F0F9FB0646FE
:103B480048460F4606F0F4FB02460B463046394617
:103B580007F068FB06460F462046294606F0FEFE9B
:103B680000F1004006F0E4FB32463B4606F034FC28
:103B780006F0F4FE4FF07C510446504607F04CF82E
:103B88000146204606F03EFF434906F03BFF1190F0
:103B98000F9806F0CDFB06460F4607F065FACDE90B
:103BA800040106F0DBFE11990690109806F02AFF32
:103BB80006F0BEFB04460D4607F0EAFA8046894641
:103BC8003046394607F0E4FA06460F4632463B4689
:103BD8004046494606F000FC06F0C0FE294609901A
:103BE800204607F041FA04460D4632463B46204639
:103BF80005F1004106F0F0FB06F0B0FE39460A90E8
:103C0800304606F0ABFEDDE90423074609F1004122
:103C1800404606F0E1FB06F0A1FEDDE90423064676
:103C28002946204606F0D8FB06F098FE294604905F
:103C3800204606F093FE49460446404606F08EFEAE
:103C4800DBF80C30DBF800C00B900C93DBF8183075
:103C580061460698CDF80CC00D9306F0DDFF0C996F
:103C68000546384606F0D8FF0146284606F0CCFE41
:103C7800002105460D9811E000000000FB210940D5
:103C88006666764066664640F568E942858FC33EBB
:103C98000000F03F0000F0BF858F433E06F0BCFFF8
:103CA8000146284606F0B0FEDBF80420DBF81C309D
:103CB80011461F900698DBF810900E93029206F0BA
:103CC800ABFF49460546384606F0A6FF014628469A
:103CD80006F09AFE002105460E9806F09DFF014663
:103CE800284606F091FEDBF8083020901946069821
:103CF800DBF81450DBF820A0019306F08DFF29466D
:103D08008046384606F088FF0146404606F07CFEAD
:103D180000210746504606F07FFF0146384606F068
:103D280073FEDDF80CC021906146099806F074FF17
:103D38000C990746304606F06FFF0146384606F0F4
:103D480063FE0D990746204606F066FF0146384691
:103D580006F05AFE2290029A0998114606F05CFF76
:103D680049460746304606F057FF0146384606F0F2
:103D78004BFE0E990746204606F04EFF0146384690
:103D880006F042FE019B23901946099806F044FF6D
:103D980029460746304606F03FFF0146384606F0FA
:103DA80033FE51460646204606F036FF01463046A9
:103DB80006F02AFEDDF80CC0249061460A9806F049
:103DC8002BFF0C990446049806F026FF014620466E
:103DD80006F01AFE0D9904460B9806F01DFF0146E1
:103DE800204606F011FE029A259011460A9806F020
:103DF80013FF49460446049806F00EFF0146204684
:103E080006F002FE0E9904460B9806F005FF0146DF
:103E1800204606F0F9FD2690019B0A98194606F0FF
:103E2800FBFE29460446049806F0F6FE01462046A5
:103E380006F0EAFD514604460B9806F0EDFE0146F1
:103E4800204606F0E1FD1CA927901FA8FFF75AFDA0
:103E58001C98434906F0E0FE424906F091FF06F03F
:103E680067FA07F047F9804689461D983C4906F0ED
:103E7800D3FE3C4906F084FF06F05AFA07F03AF9F7
:103E880006460F461E98364906F0C6FE354906F026
:103E980077FF06F04DFA07F02DF904460D46109805
:103EA8002F4906F0B9FE2F4906F06AFF06F040FADE
:103EB80007F020F98B461199824601F10040284904
:103EC80006F0AAFE274906F05BFF06F031FA07F074
:103ED80011F902460B460F9821490292019306F008
:103EE8009BFE204906F04CFF06F022FA07F002F983
:103EF800CDE906014946404606F030FD07F052F884
:103F0800089908603946304606F028FD07F04AF857
:103F1800089948602946204606F020FD07F042F837
:103F2800089988605946504606F018FD07F03AF897
:103F3800029A019B0899C8601046194606F00EFDC2
:103F480007F030F8089B1861DDE9060106F006FD68
:103F580007F028F80899486129B0BDE8F08F00BF3C
:103F680000003443D80F49402DE9F84F04698346CF
:103F78008A462046214606F04FFE01464FF07E5005
:103F880006F040FD06F0D4F907F04EF90646204643
:103F98000F4606F0CDF904460D463046394606F080
:103FA800DDFC06F0C5F902460B462046294607F017
:103FB80039F90646DBF804000F4600F1004006F028
:103FC800B7F90446DBF81C000D4600F1004006F086
:103FD800AFF902460B462046294607F023F9044666
:103FE800DBF814000D4606F0A3F98046DBF80C0058
:103FF800894606F09DF902460B464046494607F0B9
:1040080011F906F0ABFC094906F0FEFC3946CAF87E
:104018000000304606F0A2FC2946CAF804002046F3
:1040280006F09CFCCAF80800BDE8F88FD80F493F95
:104038002DE9F04FAE4BA9B01393AE4B8B46044617
:10404800079214930846002313A916AA1593FFF79D
:104058000FFC19AA204616A9FFF7F6FB199F1A9E0E
:10406800384606F065F9044630460D4606F060F914
:1040780002460B4620462946DDF86C8007F0D2F848
:1040880006F06CFC00F1004010903946384606F006
:10409800C3FD31460746304606F0BEFD414606469A
:1040A800404606F0B9FD394606F0AEFC314606F04A
:1040B800ABFC06F03DF907F0B7F806F04FFC0146F7
:1040C800814606F0A9FD8C4906F09CFC8A4900F15E
:1040D800004006F055FE0146824606F09DFD014669
:1040E8004FF07E5006F08EFC06F022F907F09CF89F
:1040F80006F034FC06F01CF9044650460D4606F05E
:1041080017F902460B462046294607F08BF8024667
:104118000B4675A1D1E9000105F0AAFF06F01EFCC7
:104128007649824606F070FC31461190384606F012
:104138006BFC06F0FDF804460D4607F075F80646D8
:1041480048460F4606F0F4F802460B463046394614
:1041580006F042F902460B462046294606F066FA62
:1041680006F0FCFB0146814606F056FD01464FF07D
:104178007E5006F047FC06F0DBF807F055F80646D7
:1041880040460F4606F0D4F83046002939464FF02D
:1041980000045B4DBCBF00245A4D06F0DFFB06F05F
:1041A800C7F8064648460F4606F0C2F802460B46D0
:1041B8003046394607F036F806460F462046294667
:1041C80006F0CCFB00F1004006F0B2F832463B4660
:1041D80006F002F906F0C2FB4FF07C510446504647
:1041E80006F01AFD0146204606F00CFC464906F08A
:1041F80009FC844661461198CDF804C006F004FC19
:1042080006F096F804460D4606F0C2FF8046109860
:10421800894606F08DF806460F4606F0B9FFCDE947
:104228000401DDE904234046494606F0D5F806F0C6
:1042380095FB39468246304606F016FFCDE908015F
:1042480006F08CFB29460A90204606F00DFFDDE9B2
:10425800042304460D4606F0BFF806F07FFBDDE9AF
:1042680008230B9009F10041404606F0B5F806F026
:1042780075FB0646DDE9040106F070FBDDE908235D
:10428800074605F10041204606F0A6F806F066FB51
:1042980029460490204606F061FB494600F1004497
:1042A800404606F05BFB0890DBF8003050460C9364
:1042B800DBF80C300C990D93DBF818300E9306F0F0
:1042C800ABFC0D990546304606F0A6FC014628468B
:1042D80006F09AFB0E990546204606F09DFC01461D
:1042E80014E000BFAFF3008000000000FB2109408C
:1042F800666676C066664640F568E942858FC33EC5
:104308000000F03F0000F0BF858F433E284606F0CE
:104318007BFBDBF80420DBF81C3011461F9050466D
:10432800DBF810800F93039206F076FC41460546B1
:10433800304606F071FC0146284606F065FB0F99E9
:104348000546204606F068FC0146284606F05CFB58
:10435800DBF80830209019465046DBF81450DBF89B
:104368002090029306F058FC29468246304606F013
:1043780053FC0146504606F047FB49460646204690
:1043880006F04AFC0146304606F03EFB0C992190A7
:104398000A9806F041FC0D990446384606F03CFCA4
:1043A8000146204606F030FB002104460E9806F030
:1043B80033FC0146204606F027FB2290039A0A9810
:1043C800114606F029FC41460446384606F024FC0E
:1043D8000146204606F018FB002104460F9806F017
:1043E8001BFC0146204606F00FFB029B2390194652
:1043F8000A9806F011FC29460446384606F00CFCDB
:104408000146204606F000FB00210446484606F017
:1044180003FC0146204606F0F7FA0C9924900B9805
:1044280006F0FAFB0D990446049806F0F5FB0146E0
:10443800204606F0E9FA0E990446089806F0ECFBC7
:104448000146204606F0E0FA039A259011460B989B
:1044580006F0E2FB41460446049806F0DDFB0146FF
:10446800204606F0D1FA0F990446089806F0D4FBC6
:104478000146204606F0C8FA2690029B0B9819467A
:1044880006F0CAFB29460446049806F0C5FB014617
:10449800204606F0B9FA49460446089806F0BCFBDF
:1044A8000146204606F0B0FA1CA927901FA8FFF77E
:1044B8005BFD1C98424906F0AFFB424906F060FCE0
:1044C80005F036FF06F016FE804689461D983C49E1
:1044D80006F0A2FB3B4906F053FC05F029FF06F065
:1044E80009FE06460F461E98354906F095FB3549E4
:1044F80006F046FC05F01CFF06F0FCFD04460D46E0
:1045080011982F4906F088FB2E4906F039FC05F072
:104518000FFF06F0EFFDDDF804C082468B466046CB
:10452800274906F079FB274906F02AFC05F000FF29
:1045380006F0E0FD02460B461098214903920293CB
:1045480006F06AFB1F4906F01BFC05F0F1FE06F0B9
:10455800D1FDCDE904014946404606F0FFF906F0D1
:1045680021FD079908603946304606F0F7F906F04C
:1045780019FD079948602946204606F0EFF906F02C
:1045880011FD079988605946504606F0E7F906F08C
:1045980009FD039A029B0799C8601046194606F060
:1045A800DDF906F0FFFC079B1861DDE9040106F060
:1045B800D5F906F0F7FC0799486129B0BDE8F08FF6
:1045C80000003443D80F494008B506F0D1FA034932
:1045D80006F022FB024906F0D3FB08BDD80F49407C
:1045E8000000344330B5012987B005460BD10723B5
:1045F80009244FF00B0C4FF00D0E8DE818500F23C7
:104608000493112308E00E2308200A210C228DE8C8
:104618000F00102304931223059300241DF80400AF
:10462800242102F015FD28510520043402F06EF90A
:10463800182CF3D107B030BD2DE9F04F012A95B001
:10464800834689460BD107230293092303930B233F
:1046580004930D2305930F23069311230AE00823DF
:1046680002930A2303930C2304930E230593102328
:10467800069312230DF1380A114650460793FFF7A7
:10468800B1FFFE2002F004FC832002F007FC0020AA
:10469800202102F009FC0120022102F005FC00277C
:1046A8003E465BF806000DF1200800EB400005F0DF
:1046B8002DFE06F01FFD00224FF0814305F0DAFCC5
:1046C80006F024F95AF8063046F808008342ACBFD1
:1046D800C0EB0300C3EB000005F018FE3CA3D3E9D0
:1046E800002305F079FE044648460D4605F020FEF5
:1046F80002460B462046294605F098FF06F02EF99B
:1047080005F016FE06F0F6FC02AC0246B81C0B4695
:10471800C0B2A15D0192009302F0C6FB019A009B12
:104728001046194606F0F2F885B2284602F000FC59
:10473800FC1CE4B20146204602F0B6FB284602F013
:10474800F9FB0146381DC0B202F0AEFB0436052065
:1047580002F0DCF8182E01D02746A2E7162002F056
:10476800ABFB02F00FFCFE2002F092FB832002F06C
:1047780095FB00201E2102F097FB0120022102F088
:1047880093FB0225002402AB195D284602F08CFB3E
:1047980038F804600434304602F0CAFB0146681C4D
:1047A800C0B202F081FB304602F0C4FB0146A81CEF
:1047B800C0B202F079FB0335182CEDB2E3D1282002
:1047C80002F07AFB02F0DEFB15B0BDE8F08F00BF07
:1047D800CDCCCCCCCCCCE43F2DE9F04F012A8DB028
:1047E80081468B4604D1032304930392052304E0F6
:1047F800022303930423049306230DF1240811468E
:1048080040460593FFF7EEFEFE2002F041FB8320B1
:1048180002F044FB0020202102F046FB0120022187
:1048280002F042FB4FF0000A564659F8060006AF60
:1048380000EB400005F06AFD06F05CFC00224FF03A
:10484800814305F017FC06F061F858F80630F0517E
:10485800181A05F05BFD3AA3D3E9002305F0BCFD67
:10486800044658460D4605F063FD02460B462046B1
:10487800294605F0DBFE06F071F806F093FB03AD60
:1048880080EAE073A3EBE0730AF10200A95DC0B20D
:10489800019302F009FB019B0AF103049BB218463D
:1048A800019302F045FBE4B20146204602F0FCFA0F
:1048B800019B0436184602F03DFB01460AF104004C
:1048C800C0B202F0F1FA0C2E01D0A246ADE70D20DD
:1048D80002F0F2FA02F056FBFE2002F0D9FA832029
:1048E80002F0DCFA00201E2102F0DEFA012002218B
:1048F80002F0DAFA02260024295D304602F0D4FAE2
:1049080037F804800434404602F012FB0146701C5C
:10491800C0B202F0C9FA404602F00CFB0146B01CD6
:10492800C0B202F0C1FA03360C2CF6B2E4D10D2065
:1049380002F0C2FA02F026FB0DB0BDE8F08F00BF0E
:10494800CDCCCCCCCCCCE43FF0B50468ABB0476858
:104958008668084606F00CF94349002506F05CF91C
:10496800424906F00DFA2A4621AB2946FEF7A4FE75
:1049780002943F4C0097A06D019605F0D9FC38A32E
:10498800D3E9002305F074FB05F0E8FF29460390FE
:10499800E06D06F039F829460490606D06F034F8A9
:1049A80003A9059006AA6846FEF74EFF06A821A9A6
:1049B80015AAFFF709F8159AD4F88C30E06C13445F
:1049C800159305F0B5FC26A3D3E9002305F052FBA7
:1049D80005F0C4FF29460990206D06F015F8294610
:1049E8000A90A06C06F010F809A90B900CAA68466A
:1049F800FEF72AFF0CA821A91BAAFFF719FB1B9A8F
:104A0800236E2169134462691B93A1F15A0312931F
:104A180053421393A369C1F15A01584211934FF0BD
:104A280080440F9110921490FEF741FE052001F08A
:104A38006DFF15A821460122FFF7FEFD1BA82146A0
:104A48000222FFF7F9FD12A821460122FFF7C4FE52
:104A58000FA821460222FFF7BFFE2BB0F0BD00BF12
:104A6800CDCCCCCCCCCC0E40D80F49400000344340
:104A78000C05002030B5012985B0054604D1032373
:104A880002930191052304E0022301930423029376
:104A980006230393002401AB185D242102F0D8FA01
:104AA800285104340C2CF6D105B030BD2DE9F8435B
:104AB8000E4604461A491046174606F0ADF8314628
:104AC80006F05EF905F034FC06F062FB80462046ED
:104AD800894605F02DFC04460D463846314606F059
:104AE8004FF905F025FC0CA3D3E9002306460F4631
:104AF8004046494605F070FC02460B4630463946AA
:104B080005F0B6FA02460B462046294605F064FC35
:104B180005F024FFBDE8F883000000C0305FC43F03
:104B2800D80FC9402DE9F0410C468046204910466F
:104B3800154606F071F8214606F022F905F0F8FB53
:104B480006F026FB06460F462846294605F05CFF78
:104B5800214606F015F905F0EBFB11A3D3E9002374
:104B680004460D463046394605F036FC02460B46EB
:104B78002046294605F07CFA0BA3D3E9002305F06B
:104B88002BFC06F005FB04460D46404605F0D0FB1D
:104B980022462B4605F020FC05F0E0FEBDE8F0813A
:104BA800000000C0305FD43F00000000FB21F93F47
:104BB800D80FC9402DE9F8430E4604461A49104655
:104BC800174606F029F8314606F0DAF805F0B0FB8A
:104BD80006F0DEFA80462046894605F0A9FB044621
:104BE8000D463846314606F0CBF805F0A1FB0CA37C
:104BF800D3E9002306460F464046494605F0ECFB3C
:104C080002460B463046394605F032FA02460B4654
:104C18002046294605F0E0FB05F0A0FEBDE8F88334
:104C2800000000C0305FD43FD80F49402DE9F84359
:104C38000E4604461A491046174605F0EDFF314660
:104C480006F09EF805F074FB06F0A2FA80462046AE
:104C5800894605F06DFB04460D463846314606F098
:104C68008FF805F065FB0CA3D3E9002306460F4631
:104C78004046494605F0B0FB02460B4630463946E9
:104C880005F0F8F902460B462046294605F0A4FB34
:104C980005F064FEBDE8F883000000C0305FD43F33
:104CA800D80F49402DE9F84317460E4605F040FB5A
:104CB80004460D4638461A4905F0AEFF314606F05F
:104CC8005FF805F035FB06F063FA804689463846FA
:104CD800314606F055F805F02BFB0FA3D3E9002366
:104CE80006460F464046494605F076FB02460B4607
:104CF8003046394605F0BCF902460B46204629469F
:104D080005F06AFB02460B462046294605F0B0F935
:104D180005F024FEBDE8F883000000C0305FD43FF2
:104D2800D80F49402DE9F041012986B0804609D1C4
:104D3800072309240B250D268DE878000F230493FB
:104D4800112308E00E2308200A210C228DE80F0009
:104D580010230493122340F2FF322021FE200593F2
:104D680002F0A0F9FE2002F093F8832002F096F8F2
:104D780000201E2102F098F80120022102F094F888
:104D88000226002758F8070000EB400005F0BEFA9D
:104D980006F0B0F904460D4630461DF8071002F03B
:104DA80083F800224FF081432046294605F062F936
:104DB80005F0ACFD84B2204602F0BAF80146701C3A
:104DC800C0B202F071F8204602F0B4F80146B01CF7
:104DD800C0B2043702F068F80336182FF6B2D1D102
:104DE800162002F069F806B0BDE8F04102F0CAB832
:104DF80001292DE9FF41804604D103230293019143
:104E0800052304E00223019304230293062340F2BE
:104E1800FF322021FE20039302F044F9FE2002F025
:104E280037F8832002F03AF800201E2102F03CF8FF
:104E38000120022102F038F80226002758F807005E
:104E480000EB400005F062FA06F054F901AB0446A5
:104E58000D463046D95D02F027F800224FF0814315
:104E68002046294605F006F905F050FD84B2204693
:104E780002F05EF80146701CC0B202F015F8204638
:104E880002F058F80146B01CC0B2043702F00CF822
:104E980003360C2FF6B2D1D10D2002F00DF804B074
:104EA800BDE8F04102F06EB803680B60C3684B6060
:104EB80083698B604368CB6003690B61C3694B618D
:104EC80083688B614369CB61036A0B627047F8B5ED
:104ED80005460C4600680968164605F09DFEE1681F
:104EE8000746686805F098FE0146384605F08CFDCF
:104EF800A1690746A86805F08FFE0146384605F007
:104F080083FD30606168286805F086FE21690746E0
:104F1800686805F081FE0146384605F075FDE169CF
:104F28000746A86805F078FE0146384605F06CFD8E
:104F38007060A168286805F06FFE616907466868B7
:104F480005F06AFE0146384605F05EFD216A07460F
:104F5800A86805F061FE0146384605F055FDB060C9
:104F68002168E86805F058FEE1680746286905F0F9
:104F780053FE0146384605F047FDA16907466869B2
:104F880005F04AFE0146384605F03EFDF0606168CE
:104F9800E86805F041FE21690746286905F03CFEEE
:104FA8000146384605F030FDE1690746686905F0B5
:104FB80033FE0146384605F027FD3061A168E868F0
:104FC80005F02AFE61690746286905F025FE0146B5
:104FD800384605F019FD216A0746686905F01CFE88
:104FE8000146384605F010FD70612168A86905F092
:104FF80013FEE1680746E86905F00EFE01463846EB
:1050080005F002FDA1690746286A05F005FE01467C
:10501800384605F0F9FCB0616168A86905F0FCFD47
:1050280021690746E86905F0F7FD0146384605F0AD
:10503800EBFCE1690746286A05F0EEFD01463846B3
:1050480005F0E2FCF061A168A86905F0E5FD616979
:105058000746E86905F0E0FD0146384605F0D4FC4E
:10506800216A0746286A05F0D7FD0146384605F04B
:10507800CBFC3062F8BD2DE9F043754CE7B0D4F8AD
:10508800840105F075FD734905F0C6FD724905F008
:1050980077FE8046D4F8880105F06AFD6D4905F071
:1050A800BBFD6D4905F06CFE8146D4F88C0105F016
:1050B8005FFD684905F0B0FD674905F061FE0246ED
:1050C800002001461EABD4F87851D4F87C71D4F88E
:1050D8008061FEF7F1FA27AB484641460022FEF709
:1050E800EBFA30AA1EA827A9FFF7F1FEE16CD4F865
:1050F800940100970196029505F086FC216D0390B6
:10510800D4F8980105F080FCA16C0490D4F89001C3
:1051180005F07AFC03A9059006AA6846FEF794FBF9
:1051280012AA06A830A9FEF783FF129A236E134429
:105138001293D4F89C319BB1139A636F1344139361
:10514800149AE36E13441493159AA36ED31A159305
:10515800169A636E13441693179A236FD31A1793EC
:10516800D4F8A80105F004FD3A4905F055FD3A497F
:1051780005F006FE0246002039AB0146FEF79CFA10
:1051880030A842A9FFF790FE4BAA42A839A9FFF719
:105198009EFEA16DD4F8B00105F036FCE16D0990D2
:1051A800D4F8B40105F030FC616D0A90D4F8AC0174
:1051B80005F02AFC0CAA0B9009A96846FEF744FBE7
:1051C8004BA854A9FFF770FE39A85DA9FFF76CFE3C
:1051D8005DA80CA90FAAFEF74BFB18AA0FA854A9A3
:1051E800FEF7F2FB189AD4F88C30194D1344189333
:1051F800D4F89C31C3B1199AD5F8B430D31A19939D
:105208001A9AD5F8AC30D31A1A931B9AD5F8A83045
:10521800D31A1B931C9AD5F8A430D31A1C93D5F82B
:10522800B0201D9B13441D9318A80121FFF77AFD98
:1052380012A80221FFF776FD08480121FFF7D8FDE3
:1052480007480221FFF7D4FD67B0BDE8F08300BF2F
:105258000C050020D80F494000003443C406002044
:10526800D00600202DE9F041764CE6B0D4F8840150
:1052780005F07EFC744905F0CFFC744905F080FD0B
:105288000546D4F8880105F073FC6F4905F0C4FCA5
:105298006E4905F075FD0646D4F88C0105F068FCEA
:1052A800694905F0B9FC694905F06AFDD4F87C3113
:1052B8000246D4F878710020D4F880810146009322
:1052C8001EABCDF804800297FEF7F6F927AB3046FF
:1052D80029460022FEF7F0F930AA1EA827A9FFF7F1
:1052E800F6FDA16DD4F8B00105F08EFBE16D0390D9
:1052F800D4F8B40105F088FB616D0490D4F8AC01D2
:1053080005F082FB03A9059006AA6846FEF79CFAF9
:1053180012AA06A830A9FEF757FB129AD4F88C30C7
:1053280013441293D4F8D031C3B1139AD4F8A030EF
:10533800D31A1393149AD4F89830D31A1493159A4D
:10534800D4F8943013441593169AD4F89030D31A9D
:105358001693179AD4F89C3013441793D4F8DC01A9
:1053680005F006FC384905F057FC384905F008FDFA
:105378000246002039AB0146FEF79EF930A84BA93A
:10538800FFF792FD42AA4BA839A9FFF7A0FDE16CEF
:10539800D4F8940105F038FB216D0990D4F89801F0
:1053A80005F032FBA16C0A90D4F8900105F02CFBB3
:1053B8000CAA0B9009A96846FEF746FA39A854A921
:1053C800FFF772FD0FAA54A80CA9FEF751FA42A8DC
:1053D8005DA9FFF769FD18AA0FA85DA9FEF728FEC9
:1053E800189A236E174D13441893D4F8D031B3B1DB
:1053F800199AD5F88830134419931A9AD5F8803039
:1054080013441A931B9AEB6F13441B931C9AAB6FAC
:1054180013441C93D5F884201D9B9B1A1D9312A836
:105428000121FFF77FFC18A80221FFF77BFC084841
:105438000121FFF7DDFC07480221FFF7D9FC66B020
:10544800BDE8F0810C050020D80F49400000344326
:10545800C4060020D00600202DE9F0410323A4B0A3
:105468000424012102228DE81E000523049306234B
:1054780005930723069308230793092308930A2310
:1054880009930B230A930C230B930D230C930E23E0
:105498000D930F230E9310230F93894C1123109310
:1054A80012231193D4F8E0310546413B062B00F254
:1054B8000481844A12F80380134493F90730012BBE
:1054C80034D105F06FFD80B202F03AFA11AC002534
:1054D8001DF805705FFA88F63146384601F0B8FDC8
:1054E800606001F0CDFC0138012816D931463846F4
:1054F80001F0AEFD606001F0C3FC013801280CD951
:105508003146384601F0A4FD606001F0B9FC01386D
:10551800012884BF4FF6FF73636054F8040F043505
:1055280080B202F00DFA482DD2D1C6E04FFA88F8C1
:10553800A8F14108B8F1060F00F2BF80DFE808F0D3
:1055480004BDBDBD08437E0005F02CFD80B2AFE070
:105558004FF6FF7002F0F4F94FF6FF7002F0F0F921
:105568004FF6FF7002F0ECF9284605F01BFD80B2FB
:1055780002F0E6F95449D4F8780105F04DFB05F03E
:1055880011FD80B202F0DCF94F49D4F87C0105F036
:1055980043FB05F007FD80B202F0D2F94A49D4F87E
:1055A800800105F039FB05F0FDFC80B202F0C8F976
:1055B800B4F8840102F0C4F9B4F8880102F0C0F923
:1055C800B4F88C0174E04FF6FF7002F0B9F94FF6A9
:1055D800FF7002F0B5F94FF6FF7002F0B1F92846F6
:1055E80005F0E0FC80B202F0ABF9D4F8AC0105F0AC
:1055F800D9FC00EB8000400080B202F0A1F9D4F899
:10560800B00105F0CFFC00EB8000400080B202F052
:1056180097F9D4F8B40105F0C5FC00EB8000400010
:1056280080B202F08DF9B4F8A00102F089F9B4F85B
:10563800A40102F085F9B4F8A80139E04FF6FF702B
:1056480002F07EF94FF6FF7002F07AF94FF6FF701C
:1056580002F076F9284605F0A5FC80B202F070F950
:10566800D4F8900105F09EFC00EB8000400080B269
:1056780002F066F9D4F8940105F094FC00EB800080
:10568800400080B202F05CF9D4F8980105F08AFC79
:1056980000EB8000400080B202F052F9B4F8D40167
:1056A80002F04EF9B4F8D80102F04AF9B4F8DC0176
:1056B80024B0BDE8F04102F043B924B0BDE8F08160
:1056C8000C050020F8CB0008000020412DE9F04F20
:1056D8000023BBB08146964A2EA99A585A500433E3
:1056E800302BF8D10023924A03F1A00502F13000D3
:1056F800185804336C46182B2851F4D1D2F8E431E9
:10570800012B15D12E9BD2F8E821013B9A420FD1EB
:105718000023884A9A58CA500433302BF9D1002301
:10572800854A28A99A58CA500433182BF8D101E0A1
:10573800002500E00125289C2F982494299C259475
:105748002A9C079405F014FA2690309805F010FA70
:105758002B9CDDF8C48008942D9C1190404613942E
:1057680005F006FAB8F5004FDDF8B0A0044605DBF1
:10577800A8F5803005F0FCF90D9000E00D90329806
:1057880005F0F6F91490359805F0F2F936991A9063
:105798000846229105F0ECF90C90379805F0E8F9E5
:1057A8002390389805F0E4F91290399805F0E0F95B
:1057B80015904DB15E4BD3F85C01DD6B05F0D8F95F
:1057C800089A16901B92089509F1FF35052D039547
:1057D8000CD80123AB4013F02A0F04D113F0150F96
:1057E80004D0564D03E04FF07E5500E000255449A3
:1057F8001498019505F006F905F0D4FB05F0B8F901
:10580800149917904E4805F0FDF805F0CBFB05F00C
:10581800AFF9239918900C9805F0F4F84FF07C51E3
:1058280005F0FAF947490590204605F0F5F946498B
:1058380005F0A6FA04F07CFD06460F4605F014FCB8
:1058480004460D463046394605F0A2FC05F086F8B8
:1058580029460646204605F081F84FF07E5105F0AE
:10586800D1F83A49044605F0D7F93849209030462E
:1058780005F0D2F9B8F1000F21903549304618DB10
:1058880005F0CAF90146209805F0BCF830490F9098
:10589800204605F0C1F904462146219805F0B4F8E0
:1058A8002C491C90304605F0B7F9214605F0AAF8B6
:1058B80017E005F0B1F90146209805F0A5F824494C
:1058C8000F90204605F0A8F904462146219805F0D6
:1058D80099F820491C90304605F09EF9214605F0BC
:1058E80093F8134B0027039CC3F8EC71C3F8D071ED
:1058F800C3F89C710123A34003F02A0503F01503A4
:1059080019900E9527930B97094B229CD3F8EC011D
:10591800A04200F3068505F02BF9039C8346012C71
:105928001AD908984FF07A5105F076F91D9015E0CC
:105938000C050020380600206C060020000080BFFF
:105948000000B442D80F4940000034439A99994066
:10595800666676409A9999C000251D95019901F1CE
:10596800004104910498A04905F056F9039C109051
:10597800012C14D95046002105F000FB78B1B9F18B
:10598800030F02D0B9F1050F09D14FF07C515046F1
:1059980005F042F90146109805F036F81090504687
:1059A800002105F0E1FA68B129F00203042B09D1BE
:1059B8004FF07C51504605F02FF90146109805F03C
:1059C80023F81090039D012D00F2C1844FF07C5103
:1059D800089805F021F912990446584605F0BAFAD4
:1059E800002843D0002509957F49019805F014F94E
:1059F80000210290504605F0C1FA78B1B9F1030FC1
:105A080002D0B9F1050F09D14FF07C51504605F08D
:105A180003F90146029804F0F5FF02905046002170
:105A280005F098FA68B129F00203042B09D14FF068
:105A38007C51504605F0F0F80146029804F0E2FF68
:105A480002906A4BD3F8E821694B01321340002BCE
:105A580003DA013B63F001030133012B00F0C68137
:105A68000D9901F100410A91B4E1089CA9F10503DF
:105A7800012B06930AD85D4BD3F8E431012B05D1ED
:105A88001598169904F0C0FF054600E0159D2946B3
:105A9800129804F0B9FF0146584605F05BFA002851
:105AA80000F044811299584604F0ACFF0399064669
:105AB800012906D8204629463246FEF7F7FF074651
:105AC8008CE0A9F10303012B01D820466BE0474B7A
:105AD800D3F8E431012B61D14FF07C51159805F0D2
:105AE8009BF880464146129804F08EFF07463946D7
:105AF800584605F02FFA48B120464FF07C5105F082
:105B08008BF841463246FFF755F850E04FF07C518C
:105B1800169805F081F880464146384604F074FF2F
:105B280002900299584605F015FA58B13946584678
:105B380004F068FF414602461B98FFF777F80746CE
:105B4800204637E01699384604F05EFF014658466D
:105B580005F000FAE0B14FF07A51204605F05CF804
:105B68001B9904F051FF02990746584604F04AFF72
:105B7800414602461B98FEF799FF0146384604F055
:105B880041FF07460021504605F0F8F9D0B91DE05D
:105B980020464FF07A5105F03FF8F2E720464FF0E3
:105BA8007C5105F039F829463246FEF77FFF074653
:105BB80004F100404FF07A5105F02EF8394604F010
:105BC80023FFDEE729F00203042B07D0504600210B
:105BD80005F0C0F970B1B9F1030F0BD15046294651
:105BE8003246FEF763FF14E0666676400C05002037
:105BF80001000080294632465046FEF757FF4FF015
:105C08007C5180460AF1004005F006F8414604F050
:105C1800FBFE80469F49019804F0FEFF014640467E
:105C280004F0F2FE9C4B8046D3F8E8219B4B0132EE
:105C38001340002B03DA013B63F001030133012B0E
:105C48000F982946324616D1FEF730FF01463846EE
:105C580004F0DAFE3246099029461C98FEF726FF22
:105C68000146404604F0D0FE2946029032460D987F
:105C7800FEF71CFF18E0FEF719FF0146384604F04E
:105C8800C1FE3246099029461998FEF70FFF0146D2
:105C9800404604F0B7FE2946029032460D98FEF7BA
:105CA80005FF0D9904F0AEFE069B0A90012B34D82F
:105CB800794BD3F8E471012F2FD14FF07C5115980F
:105CC80004F0AAFF05462946129804F09DFE804676
:105CD8004146584605F03EF928B113982946324600
:105CE800FEF7E4FE17E01699404604F08DFE0646DE
:105CF8003146584605F02EF900287BD131465846E2
:105D080004F080FE294602461398FEF7CFFE0146AE
:105D1800139804F077FE06906EE0294613983246F1
:105D2800FEF700FF012506900B9566E0039D012D07
:105D380040F2FF82A9F10303012B204602D85849FB
:105D480004F06AFF4FF07A5104F066FF002105461F
:105D5800504605F013F918B129F00203042B07D0B7
:105D68005046002105F0F6F848B1B9F1030F06D105
:105D78004849019804F050FF014650460BE04FF0A7
:105D88007C51504604F048FF42490646019804F009
:105D980043FF0146304604F037FE06463E4BD3F833
:105DA800E8213E4B01321340002B03DA013B63F03C
:105DB80001030133012B28460F990DD104F024FE6D
:105DC8001C990990304604F01FFE0D9D02900A951B
:105DD80000250B9500250BE004F014FE1999099095
:105DE800304604F00FFE002502900B9500250A9519
:105DF800069502E0139D06950B97274B274DD3F880
:105E0800E83101331D40002D03DA013D65F001053D
:105E18000135012D09D009980F9904F0F5FD19995C
:105E28000990029804F0F0FD0290039901290CD81A
:105E380020464FF07C5104F0EFFE209904F0E4FD79
:105E48000C995A46FEF7B6FE1AE0A9F10303012B96
:105E580008980DD84FF07C5104F0DEFE0C990446EA
:105E6800584604F08DFF0146204604F0D5FE07E0B1
:105E78004FF07A5104F0D0FE0C995A46FEF7D6FE40
:105E8800012D1E900ED10D980C995A46FEF792FEE0
:105E98001F9009E0666676400C050020010000802E
:105EA8000000404000241F944FF07C51504604F0FD
:105EB800B3FE00210646504605F056F828B1B9F160
:105EC800030F0BD0B9F1050F08D05046002105F09B
:105ED80055F830B129F00203042B07D1049807992B
:105EE80015E05046002105F049F850B1B9F1030F0B
:105EF80002D0B9F1050F04D10798314604F084FDAA
:105F080003E00798314604F07DFD0146049804F04B
:105F180083FE05998046584605F01CF8D0B1039DCC
:105F2800012D09D8059907985A46FEF7BFFD014685
:105F3800049804F071FE04E0404605995A46FEF7BD
:105F480075FE059980465A461198FEF7AFFD014641
:105F5800019813E02399059804F056FD044621465C
:105F6800584604F0F7FF68B1039C012C04D8049844
:105F7800079904F051FE80460198119904F04CFEEF
:105F8800049091E02146584604F03CFD03990446EC
:105F9800012923D80799049804F03EFE079907467B
:105FA800019804F039FE0146304604F02DFD2246E2
:105FB8000599FEF7FFFD0146384604F025FD0599D1
:105FC800224680461198FEF771FD0146119804F0AB
:105FD80019FD0146019804F01FFE57E050460021C4
:105FE80004F0C2FF28B1B9F1030F0BD0B9F1050FC6
:105FF80008D05046002104F0CBFF90B129F00203ED
:10600800042B13D10799049804F006FE314607467D
:1060180004F0F8FC05992246FEF7CCFD0146384607
:106028001FE05046002104F0A9FF78B1B9F1030F31
:1060380002D0B9F1050F09D1059907982246FEF754
:1060480031FE0146304604F0DFFC0CE0314607988B
:1060580004F0D8FC0599064622460798FEF7AAFDE3
:10606800314604F0CFFC11998046019804F0D4FD24
:106078000599064622461198FEF718FD0146019833
:1060880004F0CAFD0146304604F0BCFC012D049022
:1060980040F05A81059922462198FEF707FD0146EE
:1060A800404604F0B1FC8046039D012D2FD814987A
:1060B80004F03EF906460F461A984FF07C5104F05A
:1060C800ABFD5A460C99FEF7F1FC0146019804F025
:1060D800A3FD04F02DF9002204460D46A54B3046D9
:1060E800394603F0C5FF22462B4603F0C3FF04F0F0
:1060F80035FC324617903B4600209E4903F0B8FF16
:1061080022462B4603F0B6FF04F028FC1890A9F1AC
:106118000303012B34D8149804F00AF95A460646AA
:106128000F461A980C99FEF7C1FC4FF07C510446B3
:106138001A9804F071FD214604F064FC01460198A8
:1061480004F06AFD04F0F4F8002204460D46894B79
:106158003046394603F08CFF22462B4603F088FF71
:1061680004F0FCFB324617903B460020814903F0BF
:106178007FFF22462B4603F07BFF04F0EFFB1890CD
:10618800A9F10503012B34D8149804F0D1F8064678
:106198000F461A984FF07C5104F03EFD5A460C9970
:1061A8000446FEF783FC0146204604F02BFC01461A
:1061B800019804F031FD04F0BBF8002204460D46B6
:1061C8006C4B3046394603F053FF22462B4603F00A
:1061D8004FFF04F0C3FB324617903B460020654949
:1061E80003F046FF22462B4603F042FF04F0B6FBBD
:1061F800189024991E9804F007FC5F4C259DC4F85C
:106208007801C4F88051C4F87C81049804F0CAFE6F
:10621800C4F88401269804F0C5FEC4F888011F98C4
:1062280004F0C0FEC4F88C01179804F0BBFE339E3E
:10623800349D7342C4F8BC316B42C4F8B801C4F849
:10624800C031189804F0AEFEC4F8CC51039DC4F8D0
:10625800C401052DC4F8C86158D80E9D6DBB279D93
:10626800002D53D01D9D0023C4F89051109DC4F8F3
:106278009831C4F894510E9D0A98C4F8D451C4F8C2
:10628800D851C4F8DC510B9DC4F89C51099DC4F841
:10629800AC51029DC4F8B051069DC4F8B4510E9D8E
:1062A800C4F8A051C4F8A45104F07CFEC4F8D0513D
:1062B800C4F8A801FEF7DFFE28E01D9D0B99C4F87D
:1062C800AC510023109DC4F8B431C4F8D011099A18
:1062D800029B0699C4F8B0510025C4F8A051C4F82F
:1062E800A451C4F8A851C4F89021C4F89431C4F852
:1062F8009811C4F8D451C4F8D8510A9804F052FE41
:10630800C4F89C51C4F8DC01FEF7ACFF1A4BD3F873
:10631800E0314E2B3FF4F8AA5846FFF79DF8FFF7F7
:10632800F3BAD3F8E8210132C3F8E8213BB0BDE85D
:10633800F08F1249019804F06FFC0146504604F0B2
:1063480063FB2546064629E500241F94ACE658461B
:10635800129904F0FFFD00283FF487AB089901F17A
:1063680000404FF07A5104F057FC089C0990FFF761
:106378003BBB00BF008056400C0500206666764097
:1063880038B50F4B0022C3F8E82101241D462B68BD
:106398009C4214DC012C01D102200CE09C4204F048
:1063A800010204DA0AB1042005E0032003E00AB17F
:1063B800062000E00520FFF789F90134E7E738BD3A
:1063C8000C05002038B50F4B0022C3F8E821012442
:1063D8001D462B689C4214DC012C01D120460CE0A0
:1063E8009C4204F0010204DA0AB1032005E004200B
:1063F80003E00AB1052000E00620FFF767F9013441
:10640800E7E738BD0C0500201FB5FCF7FDFFC0B25B
:10641800322838D00FDC302824D0312850D1294BED
:1064280001A81A6B59680192002202925A6B0392D2
:10643800FEF78AFA44E0672809D0732802D0332887
:106448003ED12FE0FCF7E0FFFCF7E6FF38E0FCF771
:10645800DBFF04464FF4967000F058FA2046FCF72C
:1064680067FE2DE0184B01A8019300230293174BF8
:106478000A210393FEF768FA40F6C41000F046FAC2
:10648800FDF710F91CE0FCF7BFFF0E4CC4F8E00163
:10649800FCF7BAFF2368C4F8E401012B10DDFFF70D
:1064A8006FFF0DE0FCF7B0FF064CC4F8E001FCF705
:1064B800ABFF2368C4F8E401012B01DDFFF782FF7D
:1064C80004B010BD0C050020000080BF0000204172
:1064D8004C4B2DE9F04F1E2509229D6164259A60D9
:1064E800322646225D6204255A61DE614FF49662C7
:1064F8004FF496761D675D67C3F88450C3F88850DB
:106508006FF003051A629E624FF4AF72DFF804A1C0
:10651800DFF804910126C3F88C50072505210624CD
:1065280000200C274FF0030CDA624FF07E5B00224C
:106538004FF081489E67C3F89450022601251961DF
:106548001966DE67C3F8901083E89000D860C3F836
:1065580030B0C3F834A0C3F83890DA631A64C3F8CB
:10656800448058669C66C3F86CC0C3F88000C3F8C2
:106578009810C3F8A850244DC3F8AC60DD64234DCF
:1065880046265D65224DC3F83C119D651E213225C6
:10659800C3F840614FF49666C3F84411C3F84851F4
:1065A8006421C3F84C614FF496754FF4AF76C3F885
:1065B8009C40C3F8A040C3F8A400C3F8B0C0C3F817
:1065C800B4C09A641A65DA65C3F82C41C3F830710F
:1065D800C3F83471C3F83801C3F85011C3F85451E3
:1065E800C3F85861C3F85C11C3F860B1C3F864A17B
:1065F800C3F86891C3F86C21C3F87021C3F874819B
:10660800BDE8F08F0C050020CDCCCC3ECDCC4CBFE6
:10661800CDCCCCBECDCC744133335340AFF30080E6
:106628007047FEE7FEE7FEE7FEE7704770477047F2
:1066380001F028BA70477047704770477047704735
:10664800704770477047704770477047704770478A
:10665800704770477047704770477047704770477A
:1066680070477047704770477047704710B54FF0D4
:106678008040012103F0E6FA012804460FD1084BB7
:106688004FF080401A68002101321A6003F0E7F9E0
:1066980021464FF08040BDE8104003F0DEBA10BD3F
:1066A800F80600207047704770477047704770477A
:1066B8007047704700F052BA704700F09DBE7047AF
:1066C800704770477047704770477047704770470A
:1066D800704770477047704701F0DEB870477047E1
:1066E8007047704770477047034B03EBC0029188AF
:1066F80053F8300002F057B90000002009B1FFF745
:10670800F3BF044A02EBC001898852F8300002F056
:1067180048B900BF0000002008B5064B03EBC003D2
:10672800986B998F02F02BF910F1FF3018BF0120F8
:1067380008BD00BF00000020064BC0000344986E4F
:1067480019B1B3F86C1002F02CB9B3F86C1002F060
:106758002AB900BF0000002010B50D4C23681BB9F2
:1067680023790133DBB22371092804D90A23B0FB4A
:10677800F3F0206001E0012323602079C0B20128F2
:1067880001D102F019FD2368002BFCD110BD00BF18
:1067980030070020012810B5044601D004280FD185
:1067A8002C48022102F0FDF82A48042102F0FBF8E7
:1067B8000520FFF7D1FF012C1CD12748214612E004
:1067C800022801D0052821D12248022102F0EBF845
:1067D8002048042102F0E5F80520FFF7BDFF022C50
:1067E80008D11D48012101F0C3FC0520FFF7B4FFC3
:1067F800194807E01948012101F0BAFC0520FFF704
:10680800ABFF1648BDE8104001F021BD06281ED197
:10681800012207230D21104801F0C8FC0520FFF7CD
:106828009BFF01210C4801F0A3FC0520FFF794FF12
:10683800094801F00CFD0A210446012207230648F5
:1068480001F0B4FC0520FFF787FF204610BD4FF488
:10685800004010BD00100140002401400028014004
:1068680010B5044608B1032820D11248022102F0CD
:106878009AF81048042102F096F80520FFF76CFFFB
:1068880044B90D48012101F073FC0520FFF764FFAE
:10689800094807E00948012101F06AFC0520FFF7D3
:1068A8005BFF0648BDE8104001F0D1BCBDE81040D0
:1068B800FFF770BF0010014000240140002801408C
:1068C80070B5114B4400E4B203EBC403651CB3F884
:1068D8006C100646EDB2986E02F063F80021284667
:1068E800FFF72AFF1920FFF737FF3046FFF7B8FFF9
:1068F800002106462046FFF71FFF28460021FFF724
:106908001BFF304670BD00BF000000204FF47A73B3
:106918005843FFF721BF08B50A4B9A681AB91A7984
:106928000132D2B21A716422504398601879C0B209
:10693800012801D102F040FCBDE808400620FFF71D
:10694800D3BE00BF30070020084BDA681AB91A799D
:106958000132D2B21A7164225043D8601879C0B299
:10696800012801D102F028BC704700BF3007002081
:1069780010B50C46FFF7E8FF094BDB6873B14021FF
:10698800084802F010F82046FFF7E6FE05484021C7
:1069980002F007F82046FFF7DFFEEDE710BD00BF65
:1069A80030070020000801401141FFF7E1BF0B4B01
:1069B8001A691AB91A790132D2B21A71092804D996
:1069C8000A22B0FBF2F0186101E001221A6118797D
:1069D800C0B2012801D102F0EFBB70473007002098
:1069E8000B4B5A691AB91A790132D2B21A710928AD
:1069F80004D90A22B0FBF2F0586101E001225A6181
:106A08001879C0B2012801D102F0D6BB704700BF87
:106A1800300700201FB50446684603F0B1F900941A
:106A2800124C0023ADF80430ADF80630ADF808304C
:106A3800ADF80C3020460C23ADF80A3003F012F9FB
:106A480042F21070FFF788FE2046694603F054F9B9
:106A58002046012240F2255103F0BFF920460121CA
:106A680003F0AFF9012004B010BD00BF00380140A9
:106A78000148002103F0A5B9003801400023064A67
:106A88000021D0180133B3F5807F0176F7D1A2F841
:106A98001811A2F81A1170473007002070B5064681
:106AA8000D460024E3B2AB421BD20F48202101F06F
:106AB8007AFF0D48102101F074FF0C48315D03F096
:106AC800E6F90A48402103F03DFA0028F9D00648C3
:106AD800102101F068FF0448202101F062FF013411
:106AE800E0E7284670BD00BF000C014000380140B7
:106AF80070B50022D4B28C421CD2104BB3F8186186
:106B0800B3F81A51B6B2ADB2AE4215D0B3F81841C7
:106B1800A4B2651CADB2A3F818511C44247E845459
:106B2800B3F818410132A4B2FF2C84BF0024A3F8A3
:106B38001841DFE7084670BD204670BD30070020C9
:106B48001E235843FFF733BF034B1869D0F10100E8
:106B580038BF0020704700BF3007002008B51C4828
:106B680040F2255103F0F8F980B3194803F093F97E
:106B7800184BC0B2B3F81A2192B2FE2AB3F81A2100
:106B880092B206D8511C89B21A44A3F81A11107689
:106B980004E01A4410760022A3F81A21B3F8180169
:106BA800B3F81A1180B289B288420A4A05D1B2F8FC
:106BB8001811013189B2A2F81811B3F818319BB233
:106BC800FF2B03D9034B0022A3F8182108BD00BFEF
:106BD800003801403007002008B5FFF71BFF40B11F
:106BE800044B0222A3F8C820034B002283F81C217F
:106BF800012008BD0000002030070020FFF738BF43
:106C0800F8B53A4B93F81C211C46012A6DD0012295
:106C180093F8201183F81C21354A0020A229A2F8F4
:106C2800C800154605D9B2F8C81089B241F010015C
:106C38000DE093F82161771E052F0DD9832E0BD017
:106C48000E2E09D0B2F8C81089B241F02001A2F87E
:106C5800C81083F81C01F8BDFF2384F81D3184F89F
:106C68001E3100231A46D8B2814203F1010305DB25
:106C7800204490F81F010244D2B2F4E7B5F8C830B6
:106C8800214423F4657323F00303DB04D243DB0CB4
:106C980081F820210BB1FFF7F1FE94F82041134E43
:106CA8000434E4B206F21D102146FFF7F7FE8442D1
:106CB8000AD0B5F8C8309BB243F00403A5F8C83031
:106CC800002386F81C31F8BD96F82131022B06D135
:106CD80096F823010630C0B2FFF732FF02E0B42075
:106CE800FFF765FE0123A5F8C830F8BD300700207E
:106CF800000000202DE9F8435E4B93F81C211C4648
:106D0800002A00F0B480012283F81C2193F81F2187
:106D1800594DFE2A04D10222A5F8C8200022A4E079
:106D2800B5F8C830DB0705D5002384F8BD31062344
:106D380084F8BE3194F8BD6194F8BE814F4FC6EB1C
:106D48000801B819C9B2FFF7D3FE3044C6B24645A8
:106D580084F8BD61B94610D2FFF7F6FE01280CD1C0
:106D680016B94FF4806301E04FF40063A5F8C8300A
:106D7800002384F81C31BDE8F8830022D3B2711EC9
:106D88008B4208DAE01890F8BF71FF2F06D190F80F
:106D9800C001FF2802D1DBB1002109E0B01E834207
:106DA80004D1214491F8BF11FF29F4D00132E5E75D
:106DB800CAB2F01A824201F1010107DAE018104460
:106DC80090F8BF01224482F8BF01F1E784F8BD01C1
:106DD80094F8BD71274E474524D396F81F2196F89D
:106DE800C1319A4207D04823A5F8C830002386F855
:106DF8001C31BDE8F88396F8C28108F104085FFAEF
:106E080088F8474586F8BE8112D2C7EB080109EB1E
:106E18000700C9B2FFF76CFE3844C7B2474586F889
:106E2800BD7105D24FF40073A5F8C830BDE8F883EA
:106E3800002394F8C2111A46D8B2814203F1010323
:106E480005DB204490F8C1010244D2B2F4E70C44B7
:106E580094F8C211D243D2B2914214BF41F2080150
:106E68000221044B0022A5F8C81083F81C21BDE8B4
:106E7800F88300BF3007002000000020EF08002042
:106E8800024BB3F8C80080B2704700BF0000002072
:106E9800014B83F81F01704730070020014B83F82E
:106EA8002101704730070020024B184480F8221156
:106EB800704700BF30070020014B83F8200170475E
:106EC80030070020074BB3F8C8301B0707D4064B20
:106ED80093F8C33118420CBF00200120704780206E
:106EE800704700BF0000002030070020044BB3F8B3
:106EF800C8301B075ABF034B93F8C20100207047E4
:106F08000000002030070020054BB3F8C8301B07ED
:106F18005DBF044BC01890F8C4010020704700BF43
:106F2800000000203007002000EB012080B27047ED
:106F3800C0B27047000A704710B5114B93F8C211E0
:106F48001C464A1E4E2A4FF000020BD8D3B2C81C6A
:106F5800984202F1010204DB2344002083F8BF01B8
:106F6800F4E710BD83F8BF2183F8C02183F8C1215D
:106F780083F8C22183F8C32183F8C42110BD00BF60
:106F88003007002010B5FFF73BFE094BB3F8C820C7
:106F98001C4612F0010F0AD0FFF7CEFFFFF7AAFE3A
:106FA8003220FFF7D9FBB4F8C8309B05F6D410BDE2
:106FB80000000020074B93F81C21002AFAD1012277
:106FC80083F82121022283F81F0183F82021FFF78B
:106FD800D9BF00BF3007002038B50F4C94F81C31DA
:106FE80003F0FF05002BF8D1022384F82131012397
:106FF80084F82331042384F81F0184F8203184F8AD
:107008002211FFF7BFFF054BB3F8C8301B0754BF69
:1070180094F8C401284638BD30070020000000203D
:1070280010B50A4B93F81C41002CFAD183F81F01C4
:1070380083F823210320042283F8210183F82211F5
:1070480083F82021BDE81040FFF79CBF30070020DF
:1070580038B5124C94F81C3103F0FF05002BF8D119
:10706800022384F8213184F82331042384F8203161
:1070780084F81F0184F82211FFF784FF084BB3F846
:10708800C8301B0707D494F8C50194F8C43103EB42
:10709800002080B238BD284638BD00BF3007002028
:1070A8000000002010B50C4B93F81C41002CFAD1BD
:1070B80083F82321120A83F81F0183F8242103206F
:1070C800052283F8210183F8221183F82021BDE8E5
:1070D8001040FFF757BF00BF3007002000210A46C5
:1070E800FFF79EBF2DE9F04782468846002967D002
:1070F800354F97F81C31002BFAD1454608F10C069C
:107108004FF01009022387F82131102387F8233123
:10711800042387F8203187F81FA187F82291FFF709
:1071280031FF97F8C231284C122B98F8003044D11F
:10713800581CC0B288F8000094F8C43109F110094D
:1071480006F8083C94F8C53119F0FF0906F8073C21
:1071580094F8C72194F8C63105F1100503EB022312
:1071680026F8063C94F8CA3194F8C9214FEA03433B
:1071780003EB022394F8C82106F11006134446F8DD
:10718800143C94F8CE3194F8CD214FEA034303EB35
:10719800022394F8CC21134445F8043C94F8D031E8
:1071A8002B7094F8D1316B7094F8D231AB7094F89D
:1071B800D331EB70A6D1BDE8F0871846BDE8F0875B
:1071C800FF20BDE8F08700BF300700201FB5044648
:1071D800684602F0D5FD0094124C0023ADF8043047
:1071E800ADF80630ADF80830ADF80C3020460C2369
:1071F800ADF80A3002F036FD42F21070FFF7ACFA33
:107208002046694602F078FD2046012240F22551C9
:1072180002F0E3FD2046012102F0D3FD012004B075
:1072280010BD00BF004800400148002102F0C9BD60
:1072380000480040C8235843FFF7D2BB034B5869A6
:10724800D0F1010038BF0020704700BF3007002090
:1072580010B504460420FFF747FA0848214602F013
:1072680016FE0648402102F06DFE0028F9D00420E1
:107278000021BDE81040FFF741BA00BF00480040B8
:107288000F4BB3F81012B3F8122289B292B291429E
:1072980013D0B3F8122292B2511C89B2A3F8121279
:1072A8001A4492F81402B3F81222C0B292B27F2A9A
:1072B80004D90022A3F812227047FF20704700BFAC
:1072C80030070020094BB3F81012B3F8122289B224
:1072D80092B2914207D0B3F8122292B2134493F8B3
:1072E8001402C0B27047FF20704700BF300700206B
:1072F80070B5284840F2255102F02EFE002847D0EC
:10730800244802F0C8FD244CC6B2232E09BF94F8C5
:10731800943200230133DBB284F89432052094F8C8
:107328009432FFF7E1F9B4F810321B4D9BB27E2B73
:10733800B5F810329BB207D85A1C92B2A5F81022A1
:107348001D4485F8146205E02B4483F81462002379
:10735800A5F81032B4F81212B4F8102289B292B219
:1073680091420D4B05D1B3F81222013292B2A3F823
:107378001222B4F812329BB27F2B03D9064B00229B
:10738800A3F8122205200021BDE87040FFF7B6B926
:1073980070BD00BF0048004030070020034B0022AA
:1073A800A3F81022A3F81222704700BF300700206C
:1073B80008B5104BB3F81012B3F8122289B292B282
:1073C800914203D1FFF7EAFF002008BDB3F812127B
:1073D800B3F8102289B2B3F8100292B2914229BFD1
:1073E80080B2B3F81232B3F812328038C01A00F003
:1073F800FF0008BD30070020FFF77ABF08B5FFF788
:10740800E5FE003018BF012008BDFFF70DBF0A28B0
:1074180010B5044603D10D20FFF71AFF2046FFF7E9
:1074280017FF204610BD38B505460024285D18B161
:107438000134FFF7ECFFF9E7204638BD08B54FF4F3
:10744800FA60FFF7CDFAFFF7F9FE40B1FFF7B0FF9A
:1074580050B1FFF715FF0D2808BF0A2008BDFFF738
:10746800A7FF0028EFD0F1E7FF2008BD70B504465C
:107478000025802DEEB222D04FF4FA60FFF7B0FA63
:10748800FFF7DCFE18B1FFF793FF50B904E0FFF7F0
:107498008FFF0028F4D0F6E70EB9002070BDA05584
:1074A8000DE0FFF7EDFE0A2804D1002EF5D00023E9
:1074B800A35504E00028F8D060550135D9E72046E7
:1074C80070BD10B50446600702D51448FFF7ABFF3E
:1074D800210702D51248FFF7A6FFE20602D5114898
:1074E800FFF7A1FFA30602D50F48FFF79CFF600630
:1074F80002D50E48FFF797FFA10502D50C48FFF704
:1075080092FF620502D50B48FFF78DFFE30404D50F
:10751800BDE810400848FFF786BF10BD1ACC000828
:107528004CCC000880CC0008ADCC0008D6CC0008B4
:1075380015CD000843CD00086FCD000808B501201F
:10754800FFF7C0FC012802D11A48FFF76CFF0220A0
:10755800FFF7B8FC012802D11748FFF764FF0420A1
:10756800FFF7B0FC012802D11448FFF75CFF0820A0
:10757800FFF7A8FC012802D11148FFF754FF10209B
:10758800FFF7A0FC012802D10E48FFF74CFF20208E
:10759800FFF798FC012802D10B48FFF744FF402071
:1075A800FFF790FC012804D1BDE808400748FFF721
:1075B8003ABF08BDA3CD0008BACD0008CFCD00085A
:1075C800E1CD0008F7CD000809CE00081BCE000861
:1075D800FFF71DBFFFF727BFFFF730BFFFF746BF15
:1075E8001FB5164A01460023B1FBF2F402FB141141
:1075F80004F00F04303401A81C540A240133A342B8
:10760800B2FBF4F2F0D100228DF80E209DF8042090
:10761800302A07D0013B13F0FF03F7D1FFF703FF30
:1076280004B010BD0DF103020DF10D04917802F8BC
:10763800011F0029EED0A242F8D1EBE700CA9A3B1D
:1076480010B50620FFF7A6F8C0F30F141648FFF789
:10765800C1FF2046FFF7C4FF1448FFF7BBFF722C99
:1076680020D84FF4FA706421FFF782F94FF4FA70CA
:1076780041F28831FFF77CF94FF4FA706421FFF783
:1076880077F941F288314FF4FA70FFF771F9084839
:10769800FFF7A0FF0748FFF79DFFBDE8104004482B
:1076A800FFF798BF10BD00BF35CE000848CE0008D0
:1076B80055CE000880CE00081FB52B23184A8DF838
:1076C80004300023B0FBF2F102FB110001AC01F021
:1076D8000F011C443031617001330A218B42B2FB27
:1076E800F1F2EFD100238DF80F300B229DF8043012
:1076F800302B08D0013A12F0FF02F7D101A8FFF7AA
:1077080092FE04B010BD0DF103030DF10E0099783F
:1077180003F8011F0029EDD08342F8D1EAE700BF42
:1077280000CA9A3B07B530238DF8003078238DF8CE
:10773800013000238DF80630030B03F13002392A9B
:1077480084BF37338DF80230C0F3032398BF8DF818
:10775800022003F13002392A84BF37338DF8033011
:10776800C0F3031398BF8DF8032003F13002392AC0
:1077780000F00F0084BF37338DF8043000F1300378
:1077880098BF8DF80420392B84BF37308DF8050059
:10779800684698BF8DF80530FFF745FE03B05DF8E1
:1077A80004FB07B530238DF8003078238DF80130BD
:1077B80000238DF80430030903F13002392A00F060
:1077C8000F0084BF37338DF8023000F1300398BFC3
:1077D8008DF80220392B84BF37308DF803006846B6
:1077E80098BF8DF80330FFF71EFE03B05DF804FB69
:1077F80008B50548002102F0E4FABDE8084003484E
:107808004FF4805101F0CFB800500040000801400B
:1078180070B506460D460024E3B2AB4212D20420EE
:10782800FEF762FF0848315D02F031FB064840214F
:1078380002F088FB0028F9D004200021FEF75EFF43
:107848000134E9E7284670BD0050004070B50022B9
:10785800D4B28C421AD20F4B93F8956293F8965291
:10786800AE4215D093F89542E4B2651CEDB283F8A8
:1078780095521C4494F89742845493F895420132E7
:107888003F2C84BF002483F89542E1E7084670BD89
:10789800204670BD3007002070B5264840F22551BB
:1078A80002F05AFB002843D0224802F0F4FA224C96
:1078B800C6B2232E09BF94F8943200230133DBB2F9
:1078C80084F89432052094F89432FEF70DFF94F86A
:1078D8009632194D3E2B95F8963208D8DBB25A1CD1
:1078E800D2B285F896221D4485F8976205E02B44AC
:1078F80083F89762002385F8963294F8951294F8E5
:1079080096220D4B914205D193F895220132D2B2BD
:1079180083F8952294F895323F2B03D9064B002221
:1079280083F8952205200021BDE87040FEF7E6BEE9
:1079380070BD00BF0050004030070020FFF758BF5F
:1079480007B5C3B2000A8DF80400FF22C0438DF8C2
:1079580000208DF802305522DB438DF80500062102
:1079680068468DF803308DF80120FFF751FF831F1B
:107978005842584103B05DF804FB38B53A4C94F8C6
:10798800D702C0B201286DD094F8D852052D0AD874
:1079980004F2D920C5F106012844C9B2FFF756FF01
:1079A800284484F8D80294F8D81201292ED9002244
:1079B8002E48D3B2155CFF2D06D14D1E954203DD2E
:1079C80010444078552806D00132D0B2013388429D
:1079D800DBB2EDD300E0CBB18B4207D1E21892F8CD
:1079E800D822FF2A04BF03F1FF33DBB21A468A42CA
:1079F80009D2A01890F8D952D01A2044013280F840
:107A0800D952D2B2F3E7CB1A84F8D83294F8D822F4
:107A1800154B062A23D193F8D922FF2A1AD193F8B5
:107A2800DA22552A16D193F8DC1293F8DB22C943DF
:107A3800C9B28A420ED193F8DE0293F8DD12C04330
:107A4800C0B2814206D102EB0122A3F8E022012252
:107A580083F8D722002384F8D93284F8D83294F8EE
:107A6800D702C0B238BD00BF30070020090A002085
:107A7800034B002283F8D722B3F8E002704700BF17
:107A88003007002038B5364C2368012B236802D90B
:107A9800013B236007E033B12368013B236023796E
:107AA800013BDBB22371A3682D4D012BAB680CD9C8
:107AB800013BAB60A968062011F4805102D0FEF7A3
:107AC80013FE0EE0FEF71AFE0BE053B1062000216C
:107AD800FEF714FEAB68013BAB602B79013BDBB2D0
:107AE8002B71E2681E4B012ADA6802D9013ADA6082
:107AF80007E032B1DA68013ADA601A79013AD2B2AB
:107B08001A712269164B012A1A6902D9013A1A61B7
:107B180007E032B11A69013A1A611A79013AD2B208
:107B28001A7162690E4B012A5A6902D9013A5A61DF
:107B380007E032B15A69013A5A611A79013AD2B268
:107B48001A71237903F0FF0443B96FF0010001F0C3
:107B580033FB2046BDE8384001F02EBB38BD00BFDE
:107B68003007002008B55A2001F020FB012001F061
:107B780037FB024B00221A7108BD00BF30070020F6
:107B880010B501F069F94FF4803001F083F901F084
:107B9800D1FA0128044618D040F21C60012101F0F6
:107BA80073FA4FF48040012101F06EFA4FF48020FF
:107BB800012101F075FA4FF48010012101F070FAEB
:107BC800BDE81040012001F0F0B8102000F000FCE2
:107BD800022000F0E5FB002001F0AAF9002001F0E6
:107BE800BBF94FF4806001F0ADF94FF480304FF4E9
:107BF800E01101F07BF9204601F082F9392001F00B
:107C080085FA0028FAD0022001F080F901F088F9FD
:107C18000828FBD1C0E737B54FF440514FF000605A
:107C280001F002F84FF4A06000F054FF0025012491
:107C3800252301A88DF804308DF805508DF80650DD
:107C48008DF8074000F050FF272301A88DF8043075
:107C58008DF805508DF806408DF8074000F044FF78
:107C680035238DF8043001A802238DF805508DF8CE
:107C780006308DF8074000F037FF03B030BD2DE91E
:107C8800F3476D4E01A80324102500F070FE40F65E
:107C98000F13304601A9ADF804308DF806408DF871
:107CA800075000F016FE4FF48253304601A9ADF894
:107CB80004304FF000098DF806408DF8075000F0A9
:107CC80008FE2023304601A94827ADF804308DF876
:107CD800079000F0FEFD4FF44043304601A906F539
:107CE8008066ADF804308DF8077000F0F2FD4FF4AF
:107CF8007043304601A94FF00408ADF804308DF800
:107D080006408DF8075000F0E4FD3023304601A905
:107D1800ADF804308DF806408DF8075000F0D9FD15
:107D28004FF4086330460DEB0801ADF804304FF00E
:107D3800180A8DF8078000F0CCFD4FF488633046B0
:107D48000DEB0801ADF804308DF806408DF807A05A
:107D580000F0BFFD082330460DEB080106F58066EC
:107D6800ADF804308DF8077000F0B3FD4FF4707370
:107D780030460DEB0801ADF804308DF806408DF85B
:107D8800075000F0A6FD062330460DEB0801ADF8BC
:107D980004308DF806408DF8075000F09AFD4FF436
:107DA800604330460DEB0801ADF804308DF806400D
:107DB8008DF8075000F08DFD4FF4805330460DEBE1
:107DC8000801ADF804308DF806408DF807A000F0E2
:107DD80080FD092330460DEB0801ADF804308DF81D
:107DE800079000F076FD30460DEB0801ADF8045021
:107DF8008DF8077000F06DFD4FF4406330460DEBD1
:107E08000801ADF804308DF8077000F062FD0DEB45
:107E180008010A48ADF804808DF8078000F059FD84
:107E28004046012100F0E4FD0548012100F0E0FD95
:107E380002B0BDE8F08700BF00080140001401400F
:107E48000004300030B587B001A800F05BF90024C9
:107E580002234FF460252C4801A98DF814300194B1
:107E68008DF808408DF809400494039500F026F930
:107E780001948DF808408DF80940049423480124A2
:107E880001A903958DF8144000F018F91E480A213D
:107E98002246072300F08AF9224607231B480521BA
:107EA80000F084F91848214600F035F917482146B2
:107EB80000F031F9144800F049F9134800F04BF983
:107EC8000028FAD1114800F041F9104800F043F9B0
:107ED8000028FAD10C4800F042F90B4800F044F9A8
:107EE8000028FAD1094800F03AF9084800F03CF9AE
:107EF8000028FAD10448012100F03AF90348012189
:107F080000F036F907B030BD0024014000280140D8
:107F1800014608B5044801F0BAFF0348402102F0C1
:107F280011F80028F9D008BD00480040020910B532
:107F3800044602F13000392888BF02F1370004F006
:107F48000F04FFF7E5FF04F13000392888BF04F17A
:107F58003700BDE81040FFF7DBBF10B50446000A44
:107F6800FFF7E4FFE0B2BDE81040FFF7DFBF30B530
:107F780085B0044668460D4601F002FF0023ADF8BF
:107F88000430ADF80630ADF80830ADF80C30012CEF
:107F98004FF00C030095ADF80A3014D10B4801F0EE
:107FA80061FE42F21070FEF7D7FB0848694601F0FF
:107FB800A3FE064840F22551224601F00EFF034871
:107FC800214601F0FEFE05B030BD00BF0050004064
:107FD80008B501204FF46141FFF7C9FFBDE808402B
:107FE80002484FF4805100F0DEBC00BF0008014099
:107FF80008B5FFF7EDFF012008BD08B5FFF7E8FF5A
:10800800044B002283F8D72283F8D822A3F8E02271
:10801800012008BD3007002038B5104D104CFFF77F
:10802800AFFDFFF7F8FDFFF72AFEFFF79BFD284697
:10803800FEF792FBD4F8CC00FFF7E0F92846FEF7EC
:108048008BFBD4F8D000FFF7D8FF2846FEF784FB57
:10805800D4F8D400BDE83840FEF7BEBDA0860100C4
:108068000000002008B5144B98420FD003F5A05328
:10807800984213D0A3F5C05398421BD14FF4007017
:10808800012101F019F84FF400700EE04FF4806000
:10809800012101F011F84FF4806006E04FF4004030
:1080A800012101F009F84FF400400021BDE8084023
:1080B80001F002B808BD00BF0028014043680A6803
:1080C80023F4702323F4807313430A7910B543EA29
:1080D800022343608A68CB6884681A43084B2340AC
:1080E80013434A7943EA420383600B7CC26A013B2B
:1080F80022F47002DBB242EA0353C36210BD00BF30
:10810800FDF7F1FF00230360037143718360C360CF
:10811800012303747047836811B143F0010301E040
:1081280023F0010383607047836811B143F48073BF
:1081380001E023F4807383607047C9B243680AB1D1
:10814800194301E023EA010141607047836843F065
:108158000803836070478068C0F3C0007047836875
:1081680043F00403836070478068C0F38000704761
:10817800836811B143F4A00301E023F4A0038360F2
:1081880070478068C0F3805070474368013923F412
:10819800604343EA413343607047436811B143F495
:1081A800006301E023F4006343607047092970B558
:1081B8000DD9A1F10A0404EB44040725A540A34006
:1081C800C66826EA050545EA0304C4600BE001EB2E
:1081D80041040725A54003FA04F4066926EA0505C3
:1081E80045EA04030361062A0CD8013A02EB82022D
:1081F8001F23934001FA02F2446B24EA03031A4353
:10820800426370BD0C2A0CD8073A02EB82021F2386
:10821800934001FA02F2046B24EA03031A4302634F
:1082280070BD0D3A02EB82021F23934001FA02F25D
:10823800C46A24EA03031A43C26270BD836811B199
:1082480043F4801301E023F4801383607047C06C0B
:1082580080B27047014B1868704700BF4C2401403A
:10826800436811B143F4806301E023F48063436001
:108278007047436811B143F4805301E023F48053FD
:1082880043607047836823F4E04319438160704773
:10829800836811B143F4004301E023F40043836091
:1082A8007047836811B143F4021301E023F4021309
:1082B800836070478068C0F340507047092970B5E3
:1082C8000DD9A1F10A0404EB44040725A540A340F5
:1082D800C66826EA050545EA0304C4600BE001EB1D
:1082E80041040725A54003FA04F4066926EA0505B2
:1082F80045EA04030361846B931CC4F301555B1BBB
:10830800DBB203EB83031F229A40994024EA02045C
:1083180044EA0103836370BD836B013923F440137E
:1083280043EA0153836370474250704728314058ED
:1083380080B27047436823F4400323F40073194361
:1083480041607047416282627047436823F01F03AF
:10835800194341607047054B9A6810B142F4000216
:1083680001E022F400029A60704700BF0024014037
:10837800036819420CBF002001207047C9430160FF
:1083880070474368006810EA112004D0C9B2194246
:108398000CBF0020012070476FEA1121016070476F
:1083A800044B1A6802F038021A601A681043186001
:1083B800704700BF00200240044B1A6822F00802F0
:1083C8001A601A6810431860704700BF0020024006
:1083D800044B1A6822F010021A601A6810431860D9
:1083E800704700BF00200240034B044A5A6002F164
:1083F80088325A60704700BF002002402301674559
:10840800024B1A6942F080021A617047002002404C
:10841800014BD8698008704700200240014B186A58
:10842800704700BF00200240024BD869C0F34000EB
:10843800704700BF00200240024B1868C0F340108C
:10844800704700BF00200240044B1A6909B110436D
:1084580001E022EA00001861704700BF00200240D6
:108468000128064B03D1D86900F001007047DB688A
:1084780018420CBF00200120704700BF00200240B6
:10848800014BD860704700BF00200240084BDA68F3
:10849800D10709D4DA68520708D4DB6813F0100F43
:1084A8000CBF04200320704701207047022070474A
:1084B8000020024013B50446FFF7E8FF01280FD15A
:1084C80064B100230193FF230193019B13B1019B26
:1084D800013BF9E7FFF7DAFF013CEFE7052002E08F
:1084E800002C08BF052002B010BD38B5054640F67F
:1084F800FF70FFF7DFFF042814D10B4C40F6FF7024
:10850800236943F0020323616561236943F0400353
:108518002361FFF7CFFF012804D0226941F6FD73DC
:108528001340236138BD00BF0020024010B540F65B
:10853800FF70FFF7BFFF042813D10A4C40F6FF7005
:10854800236943F004032361236943F04003236153
:10855800FFF7B0FF012804D0226941F6FB731340EE
:10856800236110BD0020024010B540F6FF70FFF7F0
:10857800A1FF042829D1154C154B40F6FF70A360C4
:1085880003F18833A360236943F02003236123693F
:1085980043F040032361FFF78DFF04280ED12269C1
:1085A80041F6DF73134023612369A52243F01003CA
:1085B8002361084B0F201A80FFF77CFF012804D0A5
:1085C800226941F6EF731340236110BD0020024079
:1085D8002301674500F8FF1F70B505460F200E46BA
:1085E800FFF768FF042817D10C4C0F20236943F0CC
:1085F80001032361B3B22B80FFF75CFF042804D189
:10860800360C6E800F20FFF755FF012804D0226931
:1086180041F6FE731340236170BD00BF0020024085
:1086280070B505460F200E46FFF744FF04280FD10A
:10863800084C0F20236943F0010323612E80FFF7C4
:1086480039FF012804D0226941F6FE7313402361E3
:1086580070BD00BF0020024070B505460F200E46D1
:10866800FFF728FF042814D10A4C0B4B0F20A360F6
:1086780003F18833A360236943F0100323612E803C
:10868800FFF718FF012804D0226941F6EF73134061
:10869800236170BD002002402301674510B50446E0
:1086A8000F20FFF707FF04283ED1204B2049E44361
:1086B800996001F1883199601969E2B241F01001BD
:1086C800FF2A196104D1C4F30723FF2B08D10EE058
:1086D800184B0F201A81FFF7EDFE04281CD1F2E792
:1086E800144A0F205381FFF7E5FE042814D1C4F380
:1086F8000743FF2B06D00F4A0F209381FFF7DAFEBE
:10870800042809D1240EFF2C01D1042006E0094BCE
:108718000F20DC81FFF7CEFE012805D0034A41F681
:10872800EF7311690B40136110BD00BF00200240B8
:108738002301674500F8FF1F38B5054640F6FF706E
:10874800FFF7B8FE042836D11B4C1C4B40F6FF70CF
:10875800A36003F18833A360236943F020032361F6
:10876800236943F040032361FFF7A4FE04281BD1CB
:10877800226941F6DF7313402361236943F0100334
:1087880023610F4B0DB1002200E0A5221A8040F6AC
:10879800FF70FFF78FFE01280DD0074A41F6EF73EF
:1087A80011690B40136138BD012804D0226941F6D4
:1087B800DF731340236138BD002002402301674561
:1087C80000F8FF1FF8B5114C114B0546A36003F1E3
:1087D8008833A3600F200E461746FFF76BFE042868
:1087E80013D1236947F0F80743F0100323613E4390
:1087F800084B35435D800F20FFF75CFE012804D04D
:10880800226941F6EF7313402361F8BD002002404E
:108818002301674500F8FF1F08B5264B98422FD063
:1088280011D8A3F5006398421ED003F580639842DF
:1088380020D0A3F5006398423AD10420012100F02A
:108848003BFC04202FE01C4B98421FD003F58063AB
:10885800984221D0A3F50063984229D140200121F4
:1088680000F02AFC40201EE00820012100F024FC32
:10887800082018E01020012100F01EFC102012E052
:108888002020012100F018FC20200CE0802001218C
:1088980000F012FC802006E04FF48070012100F007
:1088A8000BFC4FF480700021BDE8084000F004BCC8
:1088B80008BD00BF00140140001C014008B501209C
:1088C800014600F0F9FBBDE808400120002100F056
:1088D800F3BBCB78F0B5DA0648BF8A78098803F08D
:1088E8000F0548BF154311F0FF0F1DD00468002283
:1088F8000127974007EA0106BE4211D197004FF0C1
:108908000F0C0CFA07FC05FA07F724EA0C04282BCD
:1089180044EA070401D1466102E0482B08BF06611A
:108928000132082AE4D10460FF291FD944680022D3
:1089380002F108060127B74007EA0106BE4211D135
:1089480097004FF00F0C0CFA07FC05FA07F724EA1A
:108958000C04282B44EA070401D1466102E0482BA5
:1089680008BF06610132082AE2D14460F0BD4FF623
:10897800FF730380022383700423C37070478368E6
:1089880019420CBF002001207047806880B27047F0
:10899800C36819420CBF002001207047C06880B22C
:1089A800704701617047416170470AB101617047C2
:1089B80041617047C160704741F4803383618161D0
:1089C8008361836983697047054B1A6822F07F02C7
:1089D8001204120C114341EA00101860704700BFDE
:1089E80000000140014B1860704700BF1C00204286
:1089F80030B5134A00F44015B5F5401F536884B2EA
:108A080006D1556823F0706325F0706555600FE056
:108A1800C20205D5C0F30342032505FA02F203E0BA
:108A2800420D120104FA02F223EA020343F07063D2
:108A380019B1400D000184402343014A536030BD01
:108A48000000014001F003039B000F229A40984068
:108A580001F0FC0101F1804101F5803110B58C680D
:108A680024EA02028A608A6802438A6010BD00BF55
:108A78000B4B6FF070424FF0FF31C3F88010C3F812
:108A88008420C3F88011C3F88421002202F1C001B8
:108A9800013200200F2A43F82100F7D1704700BFA8
:108AA80000E100E0094B4FF0206209495A600022BA
:108AB8009A60D9601A615A619A61DA611A625A62D7
:108AC8004FF0FF329A62DA621A63704700ED00E0F5
