:100000008BC00000AAC00000A8C00000A6C000006D
:10001000A4C00000A2C00000A0C000009EC000005C
:100020009CC000009AC0000098C0000096C000006C
:1000300094C0000092C0000090C000008EC000007C
:100040008CC0000074C6000088C0000086C000009C
:1000500084C0000082C0000080C000007EC000009C
:100060007CC0000046C4000078C0000076C00000DC
:1000700074C0000072C0000070C000006EC00000BC
:100080006CC000006AC0000068C0000066C00000CC
:1000900025C6000062C0000060C000005EC0000015
:1000A0005CC000005AC0000058C0000056C00000EC
:1000B00054C0000052C0000050C000004EC00000FC
:1000C0004CC000004AC0000048C00000084AD73BAE
:1000D0003BCE016E84BCBFFDC12F3D6C74319ABD17
:1000E00056833DDA3D00C77F11BED9E4BB4C3E913B
:1000F0006BAAAABE000000803F05A84CCDB2D44E2A
:10010000B93836A9020C50B9918688083CA6AAAA2B
:100110002ABE000000803F0011241FBECFEFD1E2B5
:10012000DEBFCDBF00E00CBF12E0A0E0B2E0E0E334
:10013000F9E800E00BBF02C007900D92A230B107B2
:10014000D9F726E0A2E0B2E001C01D92A630B207C6
:10015000E1F70E94CB400C94964452CF809100026C
:1001600090910102089580930402089580930602FD
:100170000895FC01EE5FFD4F6583089580930502AD
:10018000089520E030E09091A602982311F021E03C
:1001900030E0C90108958091A50290E00895FC0126
:1001A000EE55FD4F858190E00895362F20E0280F11
:1001B000391FC9010895282F30E0C90108958070C2
:1001C000892F90E008950F931F93CF93DF93809131
:1001D000EA029091EB02892B09F4B8C080910402E5
:1001E0008E3F09F4A9C08091000290910102892BF1
:1001F00029F41092E90286E08093E8028091E902F6
:1002000090E06091E80270E0681B790B8E559D4F7D
:1002100045D39091E902980F9093E9028091E8020A
:10022000981718F446D2019771F07091E902472FA0
:1002300050E0DA0111978A010250104060E0ED01B0
:10024000CE55DD4F18C08091E902882309F071C0B6
:1002500086E090E073C0F901EE55FD4F80818F3F3D
:1002600019F481818F3F61F02017310719F48881DB
:100270008F3F31F06F5F262F30E02A173B075CF38A
:100280006623A1F090E0421B530B08C0EE55FD4FD2
:10029000DF01A20FB31F8C9180839F5FE92FF0E0F5
:1002A000E417F5079CF3761B7093E9022091E902AD
:1002B0008091E802281728F1909104028091A4020D
:1002C0009817B9F56091A5026C5F6093E802261754
:1002D00088F4822F90E070E0681B790B8E559D4F5B
:1002E000DDD29091E902980F9093E9028091E802A3
:1002F000981738F08091A502A82FB0E020E090E098
:100300000CC085E090E090930102809300021EC033
:10031000EE55FD4F8281980F2F5FE22FF0E0AE1770
:10032000BF07B4F7AE55BD4F909513968C918917C2
:1003300019F087E090E002C081E090E09093010224
:10034000809300021092EB021092EA02DF91CF91AB
:100350001F910F9108951F938091EA029091EB02F3
:10036000019709F45DC081E090E09093EB028093E7
:10037000EA0280910502893940F490910602892FA2
:100380008150863028F0933819F084E090E02FC037
:100390008FEF809302028093030280910502A82FC1
:1003A000B0E020E090E005C0EE5FFD4F8281980F45
:1003B0002F5FE22FF0E0AE17BF07B4F7AE5FBD4F7F
:1003C000909513969C93809100029091010206975C
:1003D000029708F434D1109105021C5F82E092E08C
:1003E000612F70E031D1181759F082E090E09093BE
:1003F0000102809300021092EB021092EA0210C0F8
:1004000080910602823029F48091080290E00696DD
:1004100002C086E090E03CD11092010210920002EE
:100420001F91089598DF8091000290910102892B1D
:1004300039F4C9DE80910002909101020597C9F359
:100440000895282F8091EA029091EB02892B89F47C
:100450002093040283E08093060260930702CA019E
:100460004093080280709093090285E08093050212
:10047000D9CFFFCF282F8091EA029091EB02892BF0
:10048000B1F42093040282E0809306026093070295
:100490008093080284E080930502C4DF3091A802B3
:1004A00020E08091A702280F311DC9010895FFCFD8
:1004B000282F8091EA029091EB02892B69F4209316
:1004C000040283E0809306026093070240930802CF
:1004D00084E080930502A6CFFFCF282F8091EA0207
:1004E0009091EB02892B91F42093040282E0809397
:1004F00006026093070281E08093080284E0809303
:10050000050290DF8091A70290E00895FFCF282F89
:100510008091EA029091EB02892B49F42093040226
:1005200081E08093060282E0809305027BCFFFCFBB
:1005300085C00F931F938C016F5F7F4F882777FDD6
:100540008095982F0E9443429B01AC0160E074E2C9
:1005500084EF99E40E94A841AB01BC01C80115D009
:10056000892B19F420E030E00CC081E090E09093FA
:100570000102809300021092EB021092EA0221E045
:1005800030E0C9011F910F910895EF92FF920F93F0
:100590001F937A018B0182E48093C00088E98093E5
:1005A000C10086E08093C20060E074E284EF99E4C9
:1005B000A80197010E94A8410E9415426150704015
:1005C0007093C5006093C40060E074E284E799E42E
:1005D000A80197010E94A84120E030E040E451E4E6
:1005E0000E945C436093F4057093F5058093F605D3
:1005F0009093F7052091F4053091F5054091F605AB
:100600005091F70560E070E08AE793E40E94A8410A
:100610000E9415427093F3056093F2057298739AE5
:100620008FEF8093C6001092EC031092ED0381E0EF
:1006300090E01F910F91FF90EF90089508958091A1
:10064000ED038093EC030895AC01F8947398729ACB
:1006500020E030E011C08091C00085FFFCCF809188
:10066000C00080648093C000FA01E20FF31F808114
:100670008093C6002F5F3F4F2617370764F38091A2
:10068000C00086FFFCCF7298739A7894C9010895D0
:100690001092FB051092FA052091F2053091F305B6
:1006A000265F3F4F280F391F3093F9052093F80537
:1006B0000895AF92BF92CF92DF92EF92FF920F9385
:1006C0001F938091FA059091FB0501969093FB058D
:1006D0008093FA052091FA053091FB058091F80589
:1006E0009091F9058217930718F421E030E074C067
:1006F000A090F405B090F505C090F605D090F705F0
:10070000C601B5012BEA3AEA4AEA50E40E945C438A
:100710007B018C0120E030E040E85FE30E94A141D2
:10072000882314F461E054C0C801B70120E030E030
:100730004FE753E40E94514318160CF045C0C60120
:10074000B50120E030E04AE754E40E94A8415B0193
:100750006C0120E030E04AE755E40E945C437B01F5
:100760008C0120E030E040E85FE30E94A141882353
:100770001CF461E070E024C0C801B70120E03FEF45
:100780004FE757E40E9451431816B4F4C601B5016F
:1007900020E030E040E251E40E945C430E941542B8
:1007A00080E991E005C0FC013197F1F7615070409C
:1007B00061157105C1F70EC0C801B7010E9415424D
:1007C000CB010197F1F706C0C801B7010E9415429D
:1007D0006A95F1F720E030E0C9011F910F91FF9079
:1007E000EF90DF90CF90BF90AF9008959091EC0381
:1007F0008091ED03981719F420E030E017C0909134
:10080000EC038091ED03981738F48091ED039091FB
:10081000EC03282F30E008C08091ED039091EC03A9
:10082000282F30E020503F4F291B3109C90108957E
:100830001F93182FDBDF8F3F910591F0E091ED03BF
:10084000F0E0E451FD4F10838091ED038F3F19F4E8
:100850001092ED0305C08091ED038F5F8093ED034F
:100860001F9108959091EC038091ED03981711F476
:10087000EFEF12C0E091EC03F0E0E451FD4FE081B6
:100880008091EC038F3F19F41092EC0305C0809126
:10089000EC038F5F8093EC038E2F0895EF92FF920D
:1008A0000F931F93CF93DF937C01EB019091EC03A7
:1008B0008091ED03981719F400E010E012C096DF64
:1008C0008C01C817D9070CF48E01C0E0D0E006C037
:1008D000C9DFF701EC0FFD1F80832196C017D107F8
:1008E000BCF3C801DF91CF911F910F91FF90EF9062
:1008F00008951F920F920FB60F920BB60F9211240C
:100900002F933F934F935F936F937F938F939F9317
:10091000AF93BF93EF93FF938091C60089DFFF9160
:10092000EF91BF91AF919F918F917F916F915F9167
:100930004F913F912F910F900BBE0F900FBE0F90D4
:100940001F9018951092FD058091FE059091FF056E
:1009500008951F938091FD05813019F421E030E066
:1009600082C08091FC05863090F490E066E070E0F3
:10097000681B790B80509A4F71D19C018FEF2F3FEC
:10098000380729F08091FC05820F8093FC051091B7
:10099000FC051230D8F1A0E0B6E0FD0120E030E027
:1009A000612F70E0AB014150504010C080818F3FFB
:1009B00051F4241735073CF48181853521F4211544
:1009C000310521F106C02F5F3F4F319626173707BB
:1009D0006CF3A9012617370749F49B0121503040D9
:1009E000F901E050FA4F80818F3F09F09A01F90137
:1009F000E050FA4FA90104C081918D934F5F5F4F82
:100A000046175707CCF3121B1093FC058091FC0589
:100A1000863029F5809100068F3FE9F48091010628
:100A20008535C9F430910206809103068095381708
:100A300091F420910406809105068095281759F4B9
:100A4000922F80E0830F911D9093FF058093FE0508
:100A500081E08093FD05109200061092FC058091C4
:100A6000FD05282F30E0C9011F910895DF93CF9332
:100A700000D000D0CDB7DEB72FEF298325E52A833C
:100A80008B8380958C839D8390959E83CE01019668
:100A900066E070E04BD020E030E0069711F421E0F2
:100AA00030E0C90126960FB6F894DEBF0FBECDBF69
:100AB000CF91DF91089539C040E050E061E677E4DE
:100AC00011D0892B19F420E030E00AC01092FD0506
:100AD0001092FF051092FE051092FC0521E030E017
:100AE000C90108959A01AB0182E48093C80088E9A6
:100AF0008093C90086E08093CA0060E074E284EFCE
:100B000099E40E94A8410E94154261507040709380
:100B1000C5006093C4008FEF8093CE001092EE0466
:100B20001092EF0481E090E008950895AC0120E078
:100B300030E00CC08091C80085FFFCCFFA01E20FC5
:100B4000F31F80818093CE002F5F3F4F261737071A
:100B50008CF3C90108959091EE048091EF049817E9
:100B600019F420E030E017C09091EE048091EF047A
:100B7000981738F48091EF049091EE04282F30E01C
:100B800008C08091EF049091EE04282F30E02050AF
:100B90003F4F291B3109C9010895482F9091EE0458
:100BA0008091EF049817D1F09091EE048091EF04BA
:100BB000981738F48091EF049091EE04282F30E0DC
:100BC00008C08091EF049091EE04282F30E020506F
:100BD0003F4F291B31092F3F310591F0E091EF0480
:100BE000F0E0E251FC4F40838091EF048F3F19F415
:100BF0001092EF0408958091EF048F5F8093EF04CB
:100C000008959091EE048091EF04981721F190914E
:100C1000EE048091EF04981738F49091EF048091DE
:100C2000EE04981729F417C08091EF048091EE0428
:100C3000E091EE04F0E0E251FC4FE0818091EE049F
:100C40008F3F19F41092EE0407C08091EE048F5F7D
:100C50008093EE0401C0EFEF8E2F0895EF92FF9284
:100C60000F931F93CF93DF937C019091EE048091BB
:100C7000EF04981719F420E030E017C09091EE04CB
:100C80008091EF04981738F48091EF049091EE046E
:100C9000282F30E008C08091EF049091EE04282FB7
:100CA00030E020503F4F291B31098901621773073B
:100CB0000CF48B01C0E0D0E006C0A3DFF701EC0F1D
:100CC000FD1F80832196C017D107BCF3C801DF91B7
:100CD000CF911F910F91FF90EF9008951F920F9267
:100CE0000FB60F920BB60F9211242F933F934F9391
:100CF0005F936F937F938F939F93AF93BF93EF9384
:100D0000FF938091CE0049DFFF91EF91BF91AF91AA
:100D10009F918F917F916F915F914F913F912F9113
:100D20000F900BBE0F900FBE0F901F9018951F9243
:100D30000F920FB60F9211248F939F93AF93BF938F
:100D40008091EE059091EF05A091F005B091F1052D
:100D50000196A11DB11D8093EE059093EF05A09320
:100D6000F005B093F105BF91AF919F918F910F90D6
:100D70000FBE0F901F901895E4E6F0E08081877F0A
:100D80008083E1E8F0E080818F7E808380818860CD
:100D90008083A0E8B0E08C918D7F8C938C918E7FC6
:100DA0008C9380818B7F808380818260808380812F
:100DB0008160808380818F77808380818F7B808337
:100DC0008C918F778C938C918F7B8C93E2E8F0E001
:100DD00080818F778083109285001092840089EF44
:100DE00090E09093890080938800EFE6F0E08081A6
:100DF0008260808308952F923F924F925F926F920C
:100E00007F928F929F92AF92BF92CF92DF92EF929A
:100E1000FF920F931F93CF93DF93CDB7DEB7629707
:100E20000FB6F894DEBF0FBECDBF69837A838B8384
:100E30009C8329013A0147015801DA8AC98ACA010B
:100E4000B9010E94A5416D837E838F839887C80175
:100E5000B7010E94A5416B017C019B01AC016D8132
:100E60007E818F8198850E945C43E989FA8960833D
:100E7000718382839383C301B2010E94DF432B01FC
:100E80003C01DC01CB01B058E989FA898483958360
:100E9000A683B783C501B4010E94DF434B015C0107
:100EA0009B01AC016D817E818F8198850E945C439E
:100EB000E989FA89608771878287938769817A8156
:100EC0008B819C810E94DF4369877A878B879C870F
:100ED00069817A818B819C810E94A54169837A8393
:100EE0008B839C839B01AC01C701B6010E945C43CC
:100EF000262E372E182F092F29853A854B855C859C
:100F0000C501B4010E945C436D877E878F87988BF3
:100F1000222D332D412F502FC301B2010E945C437B
:100F20009B01AC016D857E858F8598890E94DB4091
:100F3000E989FA89648775878687978729813A8145
:100F40004B815C816D817E818F8198850E945C439D
:100F5000E989FA89608B718B828B938B29853A851D
:100F60004B855C85C701B6010E945C43E62EF72ED7
:100F7000D82EC92E29813A814B815C81C301B201EF
:100F80000E945C439B01AC01C501B4010E945C431B
:100F90002E2D3F2D4D2D5C2D0E94DA40E989FA89D6
:100FA000648B758B868B978B2E2D3F2D4D2D5C2D55
:100FB000C301B2010E945C436B017C0129813A812B
:100FC0004B815C81C501B4010E945C439B01AC0173
:100FD000C701B6010E94DA40E989FA89608F718FF2
:100FE000828F938F29853A854B855C856D817E81C3
:100FF0008F8198850E945C43E989FA89648F758F97
:10100000868F978F29853A854B855C85C301B20110
:101010000E945C439B01AC01C501B4010E945C438A
:101020009B01AC01622D732D812F902F0E94DB401C
:10103000E989FA8960A371A382A393A362960FB68C
:10104000F894DEBF0FBECDBFDF91CF911F910F91FE
:10105000FF90EF90DF90CF90BF90AF909F908F90D8
:101060007F906F905F904F903F902F900895EF92F8
:10107000FF920F931F93CF93DF938C017B01EA01C3
:10108000FB012081318142815381FC0160817181AA
:10109000828193810E94DA40688379838A839B836B
:1010A000F7012481358146815781F801648175817A
:1010B000868197810E94DA406C837D838E839F8333
:1010C000F7012085318542855385F801608571855A
:1010D000828593850E94DA40688779878A879B8713
:1010E000DF91CF911F910F91FF90EF900895AF92F4
:1010F000BF92CF92DF92EF92FF920F931F93CF9305
:10110000DF93EC018B015A01FB0120813181428187
:101110005381688179818A819B810E945C436B0144
:101120007C01F80124813581468157816C817D8164
:101130008E819F810E945C439B01AC01C701B60177
:101140000E94DB406B017C01F801208531854285DE
:101150005385688579858A859B850E945C439B01C0
:10116000AC01C701B6010E94DB40F50160837183C9
:1011700082839383F80120813181428153816C8580
:101180007D858E859F850E945C436B017C01F80103
:101190002481358146815781688979898A899B892B
:1011A0000E945C439B01AC01C701B6010E94DB4079
:1011B0006B017C01F80120853185428553856C895E
:1011C0007D898E899F890E945C439B01AC01C70188
:1011D000B6010E94DB40F5016483758386839783A3
:1011E000F8012081318142815381688D798D8A8D0A
:1011F0009B8D0E945C436B017C01F8012481358149
:10120000468157816C8D7D8D8E8D9F8D0E945C43B4
:101210009B01AC01C701B6010E94DB406B017C0160
:10122000F801208531854285538568A179A18AA17D
:101230009BA10E945C439B01AC01C701B6010E94C7
:10124000DB40F5016087718782879387DF91CF91BB
:101250001F910F91FF90EF90DF90CF90BF90AF90D4
:1012600008958F929F92AF92BF92CF92DF92EF92AA
:10127000FF920F931F93CF93DF93EC018B01CC80F0
:10128000DD80EE80FF8027E137EB41ED58E3C701B9
:10129000B6010E94DA400E941042862F972F9923B0
:1012A0001CF491958195910999237CF52C893D89B0
:1012B0004E895F8968A179A18AA19BA10E944E41B4
:1012C0006B017C0188849984AA84BB8427E137EB75
:1012D00041ED58E3C501B4010E94DA400E9410427A
:1012E000862F972F99231CF4919581959109992325
:1012F000F4F1288139814A815B81C501B4010E94E2
:101300004E41812C912C540137C0A7019601C70191
:10131000B6010E945C439B01AC0160E070E080E894
:101320009FE30E94DA400E94E9439B01AC01C701A0
:10133000B6010E944E414B015C012C8D3D8D4E8DBE
:101340005F8D88899989AA89BB89BC01CD01905894
:101350000E944E416B017C01288139814A815B8169
:10136000688579858A859B850E944E4105C060E02D
:1013700070E0CB014B015C0128ED3FE049E45FE305
:101380000E94DA40F80160837183828393838482B0
:101390009582A682B782C086D186E286F386DF91E7
:1013A000CF911F910F91FF90EF90DF90CF90BF9062
:1013B000AF909F908F9008952F923F924F925F929F
:1013C0006F927F928F929F92AF92BF92CF92DF9255
:1013D000EF92FF920F931F93CF93DF93CDB7DEB7BA
:1013E000C659D1090FB6F894DEBF0FBECDBF8C0130
:1013F00067967FAF6EAF6797A3965FAF4EAFA39729
:1014000086E696E6A6E7B0E42D968CAF9DAFAEAF2C
:10141000BFAF2D9786E696E6A6E4B0E461968CAF62
:101420009DAFAEAFBFAF619765961CAE1DAE1EAE51
:101430001FAE6597AE01435C5F4FBE01675B7F4F98
:1014400067968EAD9FAD679752DEAE014F5C5F4FE2
:10145000BE01635C7F4FC8010ADE29AD3AAD4BADDA
:101460005CAD6D962CAF3DAF4EAF5FAF6D9789A869
:101470009AA8ABA8BCA8CDA8DEA8EFA8F8ACA70195
:101480009601C501B4010E944E419B01AC01505828
:10149000A7962CAF3DAF4EAF5FAFA797A5019401C4
:1014A000C501B4010E945C43162F072F382E292E48
:1014B000A7019601C701B6010E945C43B62EA72E74
:1014C000982E892E6D962CAD3DAD4EAD5FAD6D97CE
:1014D000CA01B9010E945C43212F302F432D522DA8
:1014E0000E94DB402B2D3A2D492D582D0E94DB40C8
:1014F0000E94E9436B017C019B01AC010E945C43AB
:1015000025EF38E649EE52E40E94DA40905825EF84
:1015100038E649EE52E40E94A841462E572E682E26
:10152000792E762F272F352D462D572D642D752D8D
:10153000862D972D0E945C439B01AC0160E070E01A
:1015400080E89FE30E94DA400E94E943242D352D74
:10155000462D572D0E944E419B01AC0168ED7FE066
:1015600089E490E40E94DA40762E672E582E492EA8
:1015700025E83FE843EC5EE30E94DB409B01AC01C1
:101580005058C157DF4F288339834A835B83CF5834
:10159000D0402B2D3A2D492D582D612F702F832DA2
:1015A000922D0E94DB40862E972EA82EB92E0E94E7
:1015B000E943A70196010E945C439B01AC01682DA1
:1015C000792D8A2D9B2D0E94A841862E972EA82E1C
:1015D000B92E762F272F392D4A2D5B2D682D792D89
:1015E0008A2D9B2D0E945C439B01AC0160E070E062
:1015F00080E89FE30E94DA400E94E9430F2EC12C4D
:10160000D12CF0E8EF2EFFE3FF2EF02D6D962CADE0
:101610003DAD4EAD5FAD6D9757FBF7F8282D392DD9
:101620004A2D5B2D0E944E419B01AC01C701B601C2
:1016300090580E945C436B017C0120E030E040E068
:101640005FE3672D762D852D942D0E945C439B01D1
:10165000AC01C701B6010E94DA4025E83FE843E447
:101660005EE30E94DA40E62EF72E082F192F862F10
:101670009F2DA02FB12FCD56DF4F88839983AA834A
:10168000BB83C359D040A7966CAD7DAD8EAD9FADE9
:10169000A7970E94A5414B015C012E2D3F2D402FA5
:1016A000512FC157DF4F688179818A819B81CF5843
:1016B000D0400E94DA40762E672E582E492E0E9486
:1016C000DF436D966CAF7DAF8EAF9FAF6D97A796E2
:1016D0006CAD7DAD8EAD9FADA7970E94DF436B01D2
:1016E0007C019B01AC016D966CAD7DAD8EAD9FAD67
:1016F0006D970E945C43CD57DF4F6883C358D0403D
:10170000CC57DF4F7883C458D040CB57DF4F888306
:10171000C558D040CA57DF4F9883C658D040672D70
:10172000762D852D942D0E94A541A1966CAF7DAF9D
:101730008EAF9FAFA1979B01AC015058C701B60176
:101740000E945C43C957DF4F6883C758D040C857D1
:10175000DF4F7883C858D040C757DF4F8883C958B8
:10176000D040C657DF4F9883CA58D0406D962CADF5
:101770003DAD4EAD5FAD6D975058C501B4010E94AF
:101780005C43162F072F382E292EA1962CAD3DAD88
:101790004EAD5FADA197C501B4010E945C43C55732
:1017A000DF4F6883CB58D040C457DF4F7883CC5885
:1017B000D040C357DF4F8883CD58D040C257DF4F4A
:1017C0009883CE58D0406796AEADBFAD67978D91E8
:1017D0009D910D90BC91A02DAB968CAF9DAFAEAFFF
:1017E000BFAFAB976796AEADBFAD67971C962D9117
:1017F0003D914D915C911F97AF962CAF3DAF4EAF91
:101800005FAFAF9758962D913D914D915C915B974D
:10181000E3962CAF3DAF4EAF5FAFE397AB962CADE9
:101820003DAD4EAD5FADAB97C501B4010E945C43C9
:101830002B013C01AF962CAD3DAD4EAD5FADAF97EA
:10184000C701B6010E945C439B01AC01C301B20118
:101850000E94DB402B013C0120E030E0A901E3962F
:101860006CAD7DAD8EAD9FADE3970E945C439B0157
:10187000AC01C301B2010E94DB4069837A838B8390
:101880009C836796AEADBFAD679714962D913D9141
:101890004D915C911797E7962CAF3DAF4EAF5FAF80
:1018A000E79750962D913D914D915C915397EB9612
:1018B0002CAF3DAF4EAF5FAFEB975C962D913D9156
:1018C0004D915C915F97EF962CAF3DAF4EAF5FAF00
:1018D000EF97E7962CAD3DAD4EAD5FADE797C501F7
:1018E000B4010E945C432B013C01EB962CAD3DAD55
:1018F0004EAD5FADEB97C701B6010E945C439B0103
:10190000AC01C301B2010E94DB402B013C0120E08D
:1019100030E0A901EF966CAD7DAD8EAD9FADEF9738
:101920000E945C439B01AC01C301B2010E94DB40F9
:101930006D837E838F8398876796EEADFFAD679743
:101940004084518462847384248935894689578907
:10195000C158DF4F288339834A835B83CF57D040F8
:1019600020A131A142A153A169962CAF3DAF4EAF4A
:101970005FAF6997A3019201C501B4010E945C4366
:101980004B015C01C158DF4F288139814A815B815D
:10199000CF57D040C701B6010E945C439B01AC0108
:1019A000C501B4010E94DB406B017C0120E030E006
:1019B000A90169966CAD7DAD8EAD9FAD69970E9412
:1019C0005C439B01AC01C701B6010E94DB40698703
:1019D0007A878B879C87AB962CAD3DAD4EAD5FADC6
:1019E000AB97CD57DF4FB881C358D040CC57DF4FAE
:1019F000A881C458D040CB57DF4FF881C558D0409C
:101A0000CA57DF4FE881C658D0406B2F7A2F8F2FEF
:101A10009E2F0E945C436B017C01AF962CAD3DADC7
:101A20004EAD5FADAF97612F702F832D922D0E9429
:101A30005C439B01AC01C701B6010E94DB406B0116
:101A40007C01E3962CAD3DAD4EAD5FADE397A19625
:101A50006CAD7DAD8EAD9FADA1970E945C439B01A7
:101A6000AC01C701B6010E94DB406D877E878F877E
:101A7000988BE7962CAD3DAD4EAD5FADE797CD575A
:101A8000DF4FB881C358D040CC57DF4FA881C4582E
:101A9000D040CB57DF4FF881C558D040CA57DF4FF1
:101AA000E881C658D0406B2F7A2F8F2F9E2F0E942F
:101AB0005C436B017C01EB962CAD3DAD4EAD5FAD53
:101AC000EB97612F702F832D922D0E945C439B0119
:101AD000AC01C701B6010E94DB406B017C01EF96AF
:101AE0002CAD3DAD4EAD5FADEF97A1966CAD7DAD2C
:101AF0008EAD9FADA1970E945C439B01AC01C701D5
:101B0000B6010E94DB40698B7A8B8B8B9C8BA30187
:101B10009201CD57DF4FB881C358D040CC57DF4F2B
:101B2000A881C458D040CB57DF4FF881C558D0406A
:101B3000CA57DF4FE881C658D0406B2F7A2F8F2FBE
:101B40009E2F0E945C436B017C01C158DF4F2881AE
:101B500039814A815B81CF57D040612F702F832D0F
:101B6000922D0E945C439B01AC01C701B6010E940B
:101B7000DB406B017C0169962CAD3DAD4EAD5FAD98
:101B80006997A1966CAD7DAD8EAD9FADA1970E947A
:101B90005C439B01AC01C701B6010E94DB406D8B29
:101BA0007E8B8F8B988FAB962CAD3DAD4EAD5FADE0
:101BB000AB97C957DF4FB881C758D040C857DF4FE0
:101BC000A881C858D040C757DF4FF881C958D040C6
:101BD000C657DF4FE881CA58D0406B2F7A2F8F2F1E
:101BE0009E2F0E945C436B017C01AF962CAD3DADF6
:101BF0004EAD5FADAF97C557DF4FB881CB58D040E2
:101C0000C457DF4FA881CC58D040C357DF4FF8816D
:101C1000CD58D040C257DF4FE881CE58D0406B2F0F
:101C20007A2F8F2F9E2F0E945C439B01AC01C7012E
:101C3000B6010E94DB406B017C01E3962CAD3DAD0B
:101C40004EAD5FADE3976D966CAD7DAD8EAD9FAD46
:101C50006D970E945C439B01AC01C701B6010E94D5
:101C6000DB40698F7A8F8B8F9C8FE7962CAD3DADD3
:101C70004EAD5FADE797C957DF4FB881C758D04029
:101C8000C857DF4FA881C858D040C757DF4FF881E9
:101C9000C958D040C657DF4FE881CA58D0406B2F93
:101CA0007A2F8F2F9E2F0E945C436B017C01EB9655
:101CB0002CAD3DAD4EAD5FADEB97C557DF4FB88155
:101CC000CB58D040C457DF4FA881CC58D040C35721
:101CD000DF4FF881CD58D040C257DF4FE881CE5852
:101CE000D0406B2F7A2F8F2F9E2F0E945C439B0139
:101CF000AC01C701B6010E94DB406B017C01EF968D
:101D00002CAD3DAD4EAD5FADEF976D966CAD7DAD3D
:101D10008EAD9FAD6D970E945C439B01AC01C701E6
:101D2000B6010E94DB406D8F7E8F8F8F98A3A30139
:101D30009201C957DF4FB881C758D040C857DF4F0D
:101D4000A881C858D040C757DF4FF881C958D04044
:101D5000C657DF4FE881CA58D0406B2F7A2F8F2F9C
:101D60009E2F0E945C436B017C01C158DF4F28818C
:101D700039814A815B81CF57D040C557DF4FB88149
:101D8000CB58D040C457DF4FA881CC58D040C35760
:101D9000DF4FF881CD58D040C257DF4FE881CE5891
:101DA000D0406B2F7A2F8F2F9E2F0E945C439B0178
:101DB000AC01C701B6010E94DB406B017C01699652
:101DC0002CAD3DAD4EAD5FAD69976D966CAD7DAD03
:101DD0008EAD9FAD6D970E945C439B01AC01C70126
:101DE000B6010E94DB4069A37AA38BA39CA3BE012A
:101DF0006B5D7F4FCE01019634DA20E030E044E3A2
:101E000053E46DA17EA18FA198A50E945C4328EDAB
:101E10003FE049E450E40E94A8410E94BF432B01E7
:101E20003C0120E030E044E353E469A57AA58BA5AA
:101E30009CA50E945C4328ED3FE049E450E40E94E9
:101E4000A8410E94BF434B015C0120E030E044E325
:101E500053E46DA57EA58FA598A90E945C4328ED4B
:101E60003FE049E450E40E94A8410E94BF436B0157
:101E70007C0120E030E044E353E4C157DF4F688148
:101E800079818A819B81CF58D0400E945C4328EDA4
:101E90003FE049E450E40E94A8410E94BF43699694
:101EA0006CAF7DAF8EAF9FAF6997CD56DF4F688126
:101EB00079818A819B81C359D040905820E030E0DD
:101EC00044E353E40E945C4328ED3FE049E450E4DE
:101ED0000E94A8410E94BF436D966CAF7DAF8EAF4C
:101EE0009FAF6D9720E030E044E353E4A7966CADDC
:101EF0007DAD8EAD9FADA7970E945C4328ED3FE07E
:101F000049E450E40E94A8410E94BF43A1966CAFEF
:101F10007DAF8EAF9FAFA197C301B2010E94104267
:101F2000A396EEADFFADA39771836083C501B401A5
:101F30000E941042A396AEADBFADA39713967C93BB
:101F40006E931297C701B6010E941042A396EEADA0
:101F5000FFADA3977583648369966CAD7DAD8EAD3F
:101F60009FAD69970E941042A396AEADBFADA397F7
:101F700017967C936E9316976D966CAD7DAD8EAD76
:101F80009FAD6D970E941042A396EEADFFADA39753
:101F900071876087A1966CAD7DAD8EAD9FADA19729
:101FA0000E941042A396AEADBFADA3971B967C9343
:101FB0006E931A97CA56DF4F0FB6F894DEBF0FBE66
:101FC000CDBFDF91CF911F910F91FF90EF90DF90E8
:101FD000CF90BF90AF909F908F907F906F905F90C9
:101FE0004F903F902F9008952F923F924F925F9283
:101FF0006F927F928F929F92AF92BF92CF92DF9219
:10200000EF92FF920F931F93CF93DF93CDB7DEB77D
:1020100028970FB6F894DEBF0FBECDBF1C018B0111
:10202000DC011C96CD90DD90ED90FC901F975496AE
:102030008D909D90AD90BC90579727E137EB41ED87
:1020400058E3C701B6010E94DA400E941042862F71
:10205000972F99231CF49195819591099923ACF4BC
:1020600027E137EB41ED58E3C501B4010E94DA40A6
:102070000E941042862F972F99231CF491958195E9
:10208000910999230CF049C03DC0F1014088518865
:1020900062887388A3019201C301B2010E945C436C
:1020A0009B01AC0160E070E080E89FE30E94DA40B1
:1020B0000E94E9439B01AC01C301B2010E944E4161
:1020C0002B013C01F101848D958DA68DB78D9C016E
:1020D000AD01505884819581A681B781BC01CD01A5
:1020E00090580E944E4169837A838B839C83A70119
:1020F0009601C501B4010E944E416D837E838F839A
:1021000098870BC01D821E821F821886412C512C7D
:10211000320149825A826B827C8228ED3FE049E499
:102120005FE36D817E818F8198850E94DB40D801BD
:102130006D937D938D939C931397F8014482558200
:102140006682778289819A81AB81BC818087918701
:10215000A287B38728960FB6F894DEBF0FBECDBF17
:10216000DF91CF911F910F91FF90EF90DF90CF9073
:10217000BF90AF909F908F907F906F905F904F90A7
:102180003F902F9008952F923F924F925F926F92BF
:102190007F928F929F92AF92BF92CF92DF92EF92F7
:1021A000FF920F931F93CF93DF93CDB7DEB7CA593A
:1021B000D1090FB6F894DEBF0FBECDBF8C01679674
:1021C0007FAF6EAF6797A3965FAF4EAFA39786E6DC
:1021D00096E6A6E7B0EC2D968CAF9DAFAEAFBFAF45
:1021E0002D9786E696E6A6E4B0E461968CAF9DAFA7
:1021F000AEAFBFAF619765961CAE1DAE1EAE1FAEF3
:102200006597AE01435C5F4FBE01675B7F4F67968A
:102210008EAD9FAD67970E947708AE014F5C5F4F10
:10222000BE01635C7F4FC8010E94370829AC3AACFD
:102230004BAC5CAC89A89AA8ABA8BCA8CDA8DEA87A
:10224000EFA8F8ACA7019601C501B4010E944E4168
:102250009B01AC015058AF962CAF3DAF4EAF5FAF76
:10226000AF97A5019401C501B4010E945C43162FEC
:10227000072F6A968FAF6A976E969FAF6E97A701EA
:102280009601C701B6010E945C43A4966FAFA49764
:10229000A8967FAFA897682E792EA2019101C2015E
:1022A000B1010E945C436A96FFAD6A976E96EFADEE
:1022B0006E97212F302F4F2F5E2F0E94DB40A49668
:1022C000BFADA497A896AFADA8972B2F3A2F462D58
:1022D000572D0E94DB400E94E9436B017C019B016A
:1022E000AC010E945C4325EF38E649EE52E40E94BF
:1022F000DA40905825EF38E649EE52E40E94A841B2
:10230000862E972EA82EB92E762F272F392D4A2DBF
:102310005B2D682D792D8A2D9B2D0E945C439B019E
:10232000AC0160E070E080E89FE30E94DA400E9428
:10233000E943282D392D4A2D5B2D0E944E419B01EA
:10234000AC0168ED7FE089E490E40E94DA40862EDB
:10235000972EA82EB92E25E83FE843EC5EE30E94B5
:10236000DB40CD56DF4F6883C359D040CC56DF4F9A
:102370007883C459D040CB56DF4F8883C559D040AD
:10238000CA56DF4F9883C659D040A4967FADA49714
:10239000A8966FADA897272F362F462D572D6A96F2
:1023A000FFAD6A976E96EFAD6E97612F702F8F2FEE
:1023B0009E2F0E94DB40662E772E082F192F802F2C
:1023C000912F0E94E943A70196010E945C439B0163
:1023D000AC01662D772D802F912F0E94A841662E8B
:1023E000772E082F192F762F272F372D402F512F7B
:1023F000662D772D802F912F0E945C439B01AC01AD
:1024000060E070E080E89FE30E94DA400E94E943C8
:102410000F2EC12CD12CF0E8EF2EFFE3FF2EF02D74
:1024200057FAF7F8262D372D402F512F0E944E4195
:102430009B01AC01C701B60190580E945C436B013F
:102440007C0120E030E040E05FE3682D792D8A2DAB
:102450009B2D0E945C439B01AC01C701B6010E9409
:10246000DA4025E83FE843E45EE30E94DA40C956DB
:10247000DF4F6883C759D040C856DF4F7883C859AB
:10248000D040C756DF4F8883C959D040C656DF4F6A
:102490009883CA59D040762FC856DF4F6881C859F3
:1024A000D040982FC656DF4F8881CA59D040272F79
:1024B000362F492F582FCD56DF4FB881C359D04002
:1024C000CC56DF4FA881C459D040CB56DF4FF8819E
:1024D000C559D040CA56DF4FE881C659D0406B2F4E
:1024E0007A2F8F2F9E2F0E94DB40762E672E582E3C
:1024F000492E0E94DF436D966CAF7DAF8EAF9FAFCC
:102500006D97AF966CAD7DAD8EAD9FADAF970E94D0
:10251000DF436B017C019B01AC016D966CAD7DAD21
:102520008EAD9FAD6D970E945C43C957DF4F6883A6
:10253000C758D040C857DF4F7883C858D040C757D6
:10254000DF4F8883C958D040C657DF4F9883CA5899
:10255000D040AF966CAD7DAD8EAD9FADAF970E9474
:10256000A5414B015C01672D762D852D942D0E9490
:10257000A5412B013C019B01AC01C701B6010E94A2
:102580005C43C557DF4F6883CB58D040C457DF4FFB
:102590007883CC58D040C357DF4F8883CD58D04084
:1025A000C257DF4F9883CE58D0406D962CAD3DADCD
:1025B0004EAD5FAD6D975058C501B4010E945C43AC
:1025C000162F072F382E292ED301C201B058A196FD
:1025D0008CAF9DAFAEAFBFAFA1979C01AD01C50160
:1025E000B4010E945C43C157DF4F6883CF58D0408D
:1025F000C057DF4F7883C059D040CF56DF4F888314
:10260000C159D040CE56DF4F9883C259D04067960B
:10261000AEADBFAD67972D913D914D915C911397F4
:10262000A7962CAF3DAF4EAF5FAFA7971C962D91ED
:102630003D914D915C911F97AB962CAF3DAF4EAF46
:102640005FAFAB9758962D913D914D915C915B9703
:10265000E3962CAF3DAF4EAF5FAFE397A7962CAD9F
:102660003DAD4EAD5FADA797C957DF4FB881C75895
:10267000D040C857DF4FA881C858D040C757DF4F58
:10268000F881C958D040C657DF4FE881CA58D040BA
:102690006B2F7A2F8F2F9E2F0E945C432B013C01C2
:1026A000AB962CAD3DAD4EAD5FADAB97612F702FAE
:1026B000832D922D0E945C439B01AC01C301B201AA
:1026C0000E94DB402B013C01E3962CAD3DAD4EADAD
:1026D0005FADE397A1966CAD7DAD8EAD9FADA1973B
:1026E0000E945C439B01AC01C301B2010E94DB402C
:1026F00069837A838B839C836796AEADBFAD679702
:1027000014962D913D914D915C911797E7962CAFC2
:102710003DAF4EAF5FAFE79750962D913D914D91F4
:102720005C915397EB962CAF3DAF4EAF5FAFEB97FD
:102730005C962D913D914D915C915F97EF962CAFFA
:102740003DAF4EAF5FAFEF97E7962CAD3DAD4EADD1
:102750005FADE797C957DF4FB881C758D040C8571A
:10276000DF4FA881C858D040C757DF4FF881C958FC
:10277000D040C657DF4FE881CA58D0406B2F7A2F20
:102780008F2F9E2F0E945C432B013C01EB962CADBA
:102790003DAD4EAD5FADEB97612F702F832D922D28
:1027A0000E945C439B01AC01C301B2010E94DB406B
:1027B0002B013C01EF962CAD3DAD4EAD5FADEF97DB
:1027C000A1966CAD7DAD8EAD9FADA1970E945C438F
:1027D0009B01AC01C301B2010E94DB406D837E838B
:1027E0008F8398876796AEADBFAD679718962D918A
:1027F0003D914D915C911B97C158DF4F28833983E0
:102800004A835B83CF57D04054962D913D914D9193
:102810005C915797CD57DF4F288339834A835B8379
:10282000C358D04090962D913D914D915C919397D6
:1028300069962CAF3DAF4EAF5FAF6997C158DF4F80
:10284000288139814A815B81CF57D040C957DF4FFA
:10285000B881C758D040C857DF4FA881C858D0406A
:10286000C757DF4FF881C958D040C657DF4FE881BE
:10287000CA58D0406B2F7A2F8F2F9E2F0E945C4317
:102880002B013C01CD57DF4F288139814A815B8183
:10289000C358D040612F702F832D922D0E945C432E
:1028A0009B01AC01C301B2010E94DB402B013C0142
:1028B00069962CAD3DAD4EAD5FAD6997A1966CADFF
:1028C0007DAD8EAD9FADA1970E945C439B01AC0195
:1028D000C301B2010E94DB4069877A878B879C879E
:1028E000A7962CAD3DAD4EAD5FADA797C501B40128
:1028F0000E945C432B013C01AB962CAD3DAD4EAD2F
:102900005FADAB97C701B6010E945C439B01AC0170
:10291000C301B2010E94DB402B013C0120E030E00A
:10292000A901E3966CAD7DAD8EAD9FADE3970E949E
:102930005C439B01AC01C301B2010E94DB406D8787
:102940007E878F87988BE7962CAD3DAD4EAD5FAD02
:10295000E797C501B4010E945C432B013C01EB9653
:102960002CAD3DAD4EAD5FADEB97C701B6010E94FA
:102970005C439B01AC01C301B2010E94DB402B010F
:102980003C0120E030E0A901EF966CAD7DAD8EAD4D
:102990009FADEF970E945C439B01AC01C301B20164
:1029A0000E94DB40698B7A8B8B8B9C8BC158DF4FED
:1029B000288139814A815B81CF57D040C501B4015C
:1029C0000E945C434B015C01CD57DF4F2881398168
:1029D0004A815B81C358D040C701B6010E945C4365
:1029E0009B01AC01C501B4010E94DB406B017C017D
:1029F00020E030E0A90169966CAD7DAD8EAD9FAD54
:102A000069970E945C439B01AC01C701B6010E941B
:102A1000DB406D8B7E8B8F8B988FA7962CAD3DAD59
:102A20004EAD5FADA797C557DF4FB881CB58D040AB
:102A3000C457DF4FA881CC58D040C357DF4FF8812F
:102A4000CD58D040C257DF4FE881CE58D0406B2FD1
:102A50007A2F8F2F9E2F0E945C436B017C01AB96D7
:102A60002CAD3DAD4EAD5FADAB97C157DF4FB881DB
:102A7000CF58D040C057DF4FA881C059D040CF5663
:102A8000DF4FF881C159D040CE56DF4FE881C2599F
:102A9000D0406B2F7A2F8F2F9E2F0E945C439B017B
:102AA000AC01C701B6010E94DB406B017C01E396DB
:102AB0002CAD3DAD4EAD5FADE3976D966CAD7DAD8C
:102AC0008EAD9FAD6D970E945C439B01AC01C70129
:102AD000B6010E94DB40698F7A8F8B8F9C8FE796BF
:102AE0002CAD3DAD4EAD5FADE797C557DF4FB8811B
:102AF000CB58D040C457DF4FA881CC58D040C357E3
:102B0000DF4FF881CD58D040C257DF4FE881CE5813
:102B1000D0406B2F7A2F8F2F9E2F0E945C436B012A
:102B20007C01EB962CAD3DAD4EAD5FADEB97C15743
:102B3000DF4FB881CF58D040C057DF4FA881C05970
:102B4000D040CF56DF4FF881C159D040CE56DF4F2D
:102B5000E881C259D0406B2F7A2F8F2F9E2F0E9471
:102B60005C439B01AC01C701B6010E94DB406B01D5
:102B70007C01EF962CAD3DAD4EAD5FADEF976D9600
:102B80006CAD7DAD8EAD9FAD6D970E945C439B019A
:102B9000AC01C701B6010E94DB406D8F7E8F8F8F25
:102BA00098A3C158DF4F288139814A815B81CF5773
:102BB000D040C557DF4FB881CB58D040C457DF4F06
:102BC000A881CC58D040C357DF4FF881CD58D040B2
:102BD000C257DF4FE881CE58D0406B2F7A2F8F2F0E
:102BE0009E2F0E945C436B017C01CD57DF4F2881F3
:102BF00039814A815B81C358D040C157DF4FB881CA
:102C0000CF58D040C057DF4FA881C059D040CF56D1
:102C1000DF4FF881C159D040CE56DF4FE881C2590D
:102C2000D0406B2F7A2F8F2F9E2F0E945C439B01E9
:102C3000AC01C701B6010E94DB406B017C016996C3
:102C40002CAD3DAD4EAD5FAD69976D966CAD7DAD74
:102C50008EAD9FAD6D970E945C439B01AC01C70197
:102C6000B6010E94DB4069A37AA38BA39CA3BE019B
:102C70006B5D7F4FCE010196B7D920E030E044E391
:102C800053E46DA17EA18FA198A50E945C4328ED1D
:102C90003FE049E450E40E94A8410E94BF43699686
:102CA0006CAF7DAF8EAF9FAF699720E030E044E31B
:102CB00053E469A57AA58BA59CA50E945C4328EDE9
:102CC0003FE049E450E40E94A8410E94BF436D9652
:102CD0006CAF7DAF8EAF9FAF6D9720E030E044E3E7
:102CE00053E46DA57EA58FA598A90E945C4328EDAD
:102CF0003FE049E450E40E94A8410E94BF43A196EE
:102D00006CAF7DAF8EAF9FAFA19720E030E044E382
:102D100053E4CD56DF4FB881C359D040CC56DF4F76
:102D2000A881C459D040CB56DF4FF881C559D04057
:102D3000CA56DF4FE881C659D0406B2F7A2F8F2FAC
:102D40009E2F0E945C4328ED3FE049E450E40E943E
:102D5000A8410E94BF432B013C0120E030E044E346
:102D600053E4C956DF4FB881C759D040C856DF4F2A
:102D7000A881C859D040C756DF4FF881C959D04003
:102D8000C656DF4FE881CA59D0406B2F7A2F8F2F5C
:102D90009E2F0E945C4328ED3FE049E450E40E94EE
:102DA000A8410E94BF434B015C0120E030E044E3B6
:102DB00053E4AF966CAD7DAD8EAD9FADAF970E94E5
:102DC0005C4328ED3FE049E450E40E94A8410E94A2
:102DD000BF436B017C0169966CAD7DAD8EAD9FAD3F
:102DE00069970E941042A396EEADFFADA397718341
:102DF00060836D966CAD7DAD8EAD9FAD6D970E947D
:102E00001042A396AEADBFADA39713967C936E937D
:102E10001297A1966CAD7DAD8EAD9FADA1970E942E
:102E20001042A396EEADFFADA39775836483C301F3
:102E3000B2010E941042A396AEADBFADA397179604
:102E40007C936E931697C501B4010E941042A3961D
:102E5000EEADFFADA39771876087C701B6010E94F1
:102E60001042A396AEADBFADA3971B967C936E9315
:102E70001A97C656DF4F0FB6F894DEBF0FBECDBF10
:102E8000DF91CF911F910F91FF90EF90DF90CF9046
:102E9000BF90AF909F908F907F906F905F904F907A
:102EA0003F902F90089540E050E068E170E08EEF91
:102EB00090E00E9458020C94AE0041E050E068E1BE
:102EC00070E08EEF90E00E9458020C94AE0002C0B9
:102ED0000C94A2040E94A9040197E1F7F9CFBC0168
:102EE000882777FD8095982F0E94434228ED3FE088
:102EF00049E450E40E945C4320E030E044E353E4C2
:102F00000C94A841CF92DF92EF92FF920F931F9300
:102F1000CF93DF93CDB7DEB72C970FB6F894DEBF13
:102F20000FBECDBF61307105C9F427E030E03A83B0
:102F3000298329E030E03C832B832BE030E03E8383
:102F40002D832DE030E038872F832FE030E03A8763
:102F5000298721E130E03C872B8731C028E030E031
:102F60003A8329832AE030E03C832B832CE030E055
:102F70003E832D832EE030E038872F8320E130E040
:102F80003A87298722E130E03C872B8718C064E22A
:102F900070E0F801819191918F010E943A02F7014E
:102FA000819391937F010E94AE008FE19EE401978F
:102FB000F1F700C000000C151D0549F70AC08E018D
:102FC0000F5F1F4FE82EF92E6E019DE0C90ED11C38
:102FD000DECF2C960FB6F894DEBF0FBECDBFDF91CB
:102FE000CF911F910F91FF90EF90DF90CF900895B8
:102FF0002F923F924F925F926F927F928F929F9209
:10300000AF92BF92CF92DF92EF92FF920F931F93F6
:10301000CF93DF93CDB7DEB766970FB6F894DEBFD8
:103020000FBECDBF082F192F2A013B0121303105DA
:1030300069F481E090E09E878D8783E090E0988B33
:103040008F8785E090E09A8B898B0CC042E050E03E
:103050005E874D8744E050E0588B4F8746E050E054
:103060005A8B498BB901CE0101964CDF8EEF90E06F
:103070000E94B30083E890E00E94B60060E270E036
:1030800080E090E00E94B90062E070E081E090E0B2
:103090000E94B900C02ED12E4E0147E0840E911C33
:1030A00022242394312C2C0E3D1E5E015DE0A50EE2
:1030B000B11CBE8AAD8A9C8A8B8A6894EE24E1F8A2
:1030C000F12CF601819191916F01BC01660F771F80
:1030D000680F791F882777FD8095982F0E944342BB
:1030E0000E94BF4320E030E040E054E40E94DB4017
:1030F0000E941042EB89FC8961937193FC8BEB8BEE
:10310000F101219131911F01A901461B570BBA0111
:10311000882777FD8095982F0E94434226E636E661
:1031200046E25FE30E945C43A30192010E94A84132
:103130000E941042062F172F11231CF411950195A0
:103140001109ED89FE8961917191FE8BED8BC701AB
:103150000E94B900802F912F0E94DB00BC01C701A3
:1031600001960E94B900802F912F0E94DF00BC01C0
:10317000C70102960E94B900F3E0EF0EF11C4BE08C
:10318000E416F10409F09DCF8DE090E00E94BE00AE
:103190000E9412020E94AE008EEF90E00E94B300E7
:1031A00083E890E00E94B6006EE170E080E090E07D
:1031B0000E94B90062E070E081E090E00E94B900F6
:1031C00002E010E0F501619171915F01C8010E9478
:1031D000B900F401E190F1904F01C7010E94DB00BA
:1031E000BC01C80101960E94B900C7010E94DF001E
:1031F000BC01C80102960E94B9000D5F1F4F0B3041
:10320000110501F78DE090E00E94BE000E941202BD
:103210000E94AE0066960FB6F894DEBF0FBECDBF1B
:10322000DF91CF911F910F91FF90EF90DF90CF90A2
:10323000BF90AF909F908F907F906F905F904F90D6
:103240003F902F9008952F923F924F925F926F92EE
:103250007F928F929F92AF92BF92CF92DF92EF9226
:10326000FF920F931F93CF93DF93CDB7DEB7AA974B
:103270000FB6F894DEBF0FBECDBF082F192F2A015D
:103280003B0121303105C9F487E090E09A8F898FA6
:1032900089E090E09C8F8B8F8BE090E09E8F8D8FEC
:1032A0008DE090E098A38F8F8FE090E09AA389A3A0
:1032B00081E190E09CA38BA318C088E090E09A8FF6
:1032C000898F8AE090E09C8F8B8F8CE090E09E8FBE
:1032D0008D8F4EE050E058A34F8F40E150E05AA34D
:1032E00049A342E150E05CA34BA3B901CE01019692
:1032F00009DE8EEF90E00E94B30083E890E00E9428
:10330000B60060E270E080E090E00E94B90062E008
:1033100070E081E090E00E94B900202E312E4E0135
:103320008DE0880E911CFE013196F8A7EFA35E0197
:10333000F9E1AF0EB11CBAA6A9A69EA28DA202E029
:1033400010E0F101819191911F01BC01660F771F7F
:10335000680F791F882777FD8095982F0E94434238
:103360000E94BF4320E030E040E054E40E94DB4094
:103370000E9410429B01EDA1FEA161937193FEA3F7
:10338000EDA3EFA1F8A581919191F8A7EFA3821782
:103390009307A4F0BC01621B730B882777FD80950F
:1033A000982F0E94434226E636E646E25FE30E94FB
:1033B0005C43A30192010E94A84113C0B901681B9C
:1033C000790B882777FD8095982F0E94434226E647
:1033D00036E646E25FE30E945C43A30192010E944D
:1033E000A8410E94BF430E9410426B017C01E9A5E5
:1033F000FAA561917191FAA7E9A7C8010E94B900E5
:10340000C6010E94DB00BC01C80101960E94B90000
:10341000C6010E94DF00BC01C80102960E94B900EB
:103420008FE19EE40197F1F700C000000D5F1F4F90
:103430000431110509F085CF86E190E00E94BE00BD
:103440000E9412020E94AE008EEF90E00E94B30034
:1034500083E890E00E94B6006EE170E080E090E0CA
:103460000E94B90062E070E081E090E00E94B90043
:1034700002E010E0F501619171915F01C8010E94C5
:10348000B900F401E190F1904F01C7010E94DB0007
:10349000BC01C80101960E94B900C7010E94DF006B
:1034A000BC01C80102960E94B9000D5F1F4F043194
:1034B000110501F788E290E00E94BE000E9412020E
:1034C0000E94AE00AA960FB6F894DEBF0FBECDBF25
:1034D000DF91CF911F910F91FF90EF90DF90CF90F0
:1034E000BF90AF909F908F907F906F905F904F9024
:1034F0003F902F9008954F925F926F927F928F929C
:103500009F92AF92BF92CF92DF92EF92FF920F9372
:103510001F93CF93DF93CDB7DEB7CC58D1090FB649
:10352000F894DEBF0FBECDBFFC018B01808191817D
:10353000A281B381CB57DF4F88839983AA83BB8352
:10354000C558D040448055806680778080859185BD
:10355000A285B385C757DF4F88839983AA83BB832E
:10356000C958D04080E090E0BADC4B015C01C80152
:10357000B6DCCC24C394D12CCC0EDD1E85017401A5
:10358000A50194010E94FB06E1964CAE5DAE6EAEC5
:103590007FAEE197C757DF4F88819981AA81BB81B0
:1035A000C958D040E5968CAF9DAFAEAFBFAFE597A1
:1035B000CB57DF4F88819981AA81BB81C558D04004
:1035C000E9968CAF9DAFAEAFBFAFE99726E636E682
:1035D00046E750E460917E0570917F0580918005FB
:1035E000909181050E94DA40A5966CAF7DAF8EAFB9
:1035F0009FAFA59720E030E0A9016091820570910E
:10360000830580918405909185050E94DB40A996F1
:103610006CAF7DAF8EAF9FAFA99720E030E0A901DE
:1036200060917A0570917B0580917C0590917D0574
:103630000E94DB40AD966CAF7DAF8EAF9FAFAD9774
:10364000AE014B5A5F4FBE016F597F4FCE01835978
:103650009F4F0E943708AE01475B5F4FB601CE0116
:103660008B5A9F4F0E94DC092B962EAD3FAD2B97B6
:1036700080919C0590919D05820F931F2B969FAF83
:103680008EAF2B9726E636E646E750E4609172054A
:103690007091730580917405909175050E94DB40CF
:1036A00021966CAF7DAF8EAF9FAF219720E030E0C9
:1036B000A9016091760570917705809178059091C8
:1036C00079050E94DB4025966CAF7DAF8EAF9FAF32
:1036D000259720E030E0A90160916E0570916F059B
:1036E00080917005909171050E94DB4029966CAF26
:1036F0007DAF8EAF9FAF2997AE014F5C5F4FBE018C
:10370000635C7F4FCE0183599F4F0E943708AE0103
:103710004B5D5F4FB601CE01C1960E94C3102DA133
:103720003EA18091860590918705820F931F9EA3ED
:103730008DA34091D2055091D305CA018A559109B4
:10374000EB969FAF8EAFEB972091D4053091D505C6
:1037500088279927821B930BED969FAF8EAFED972D
:103760008091D6059091D70566277727681B790B3E
:10377000EF967FAF6EAFEF976AE570E0DB01A41BB9
:10378000B50BC158DF4FB983A883CF57D040CF576F
:10379000DF4F39832883C158D040CD57DF4F9983FD
:1037A0008883C358D04089DBEFE1FEE43197F1F71D
:1037B00000C0000021E030E040E050E060E070E454
:1037C000CE01875B9F4F3FDD22E030E040E050E0DC
:1037D00060E070E4CE01859636DD21E030E040E027
:1037E00050E060E070E4CE0187589F4F01DC22E09A
:1037F00030E040E050E060E070E4CE0181589F4F3F
:10380000F7DBC457DF4F0FB6F894DEBF0FBECDBF56
:10381000DF91CF911F910F91FF90EF90DF90CF90AC
:10382000BF90AF909F908F907F906F905F904F90E0
:1038300008950F931F93CF93DF938236910509F478
:10384000A6C08336910509F4E9C08136910509F0D7
:103850003BC13DDB9093CB058093CA0538DBBC01AF
:10386000882777FD8095982F0E94434220E030E022
:1038700040E251E40E94A8416093B2057093B30501
:103880008093B4059093B50522DBBC01882777FDB2
:103890008095982F0E94434220E030E040E251E4BE
:1038A0000E94A8416093B6057093B7058093B80550
:1038B0009093B9050CDB9093CD058093CC0507DB85
:1038C000BC01882777FD8095982F0E94434220E015
:1038D00030E040E251E40E94A8416093BA05709341
:1038E000BB058093BC059093BD05F1DA9093CF059D
:1038F0008093CE05ECDABC01882777FD8095982F60
:103900000E94434220E030E040E251E40E94A8419E
:103910006093BE057093BF058093C0059093C10569
:10392000D6DABC01882777FD8095982F0E94434204
:1039300020E030E040E251E40E94A8416093C205DB
:103940007093C3058093C4059093C505C0DABC018C
:10395000882777FD8095982F0E94434220E030E031
:1039600040E251E40E94A8416093C6057093C705E8
:103970008093C8059093C905C0EDD5E002EE15E02F
:10398000A6DA89939993C017D107D1F79DC0CEE6E7
:10399000D5E00AE715E09BDABC01882777FD809522
:1039A000982F0E94434220E030E040E251E40E9420
:1039B000A8416993799389939993C017D10759F7CF
:1039C000C6E8D5E00CE915E082DA89939993C0172F
:1039D000D107D1F7CAE7D5E006E815E078DABC01EF
:1039E000882777FD8095982F0E94434220E030E0A1
:1039F00040E251E40E94A841699379938993999395
:103A0000C017D10759F7CCE9D5E002EB15E05FDA32
:103A100089939993C017D107D1F756C058DABC01E2
:103A2000882777FD8095982F0E94434220E030E060
:103A300040E251E40E94A84160932E0570932F0547
:103A4000809330059093310542DABC01882777FDD9
:103A50008095982F0E94434220E030E040E251E4FC
:103A60000E94A8416093320570933305809334051A
:103A7000909335052CDA90933B0580933A0527DA2D
:103A8000BC01882777FD8095982F0E94434220E053
:103A900030E040E251E40E94A84160933605709303
:103AA0003705809338059093390511DA90933D05D9
:103AB00080933C05CEE3D5E00EE615E008DA899365
:103AC0009993C017D107D1F7DF91CF911F910F9133
:103AD00008950C94360508950F931F93CF93DF93A9
:103AE0008236910509F48EC08336910509F4C9C068
:103AF0008136910509F00FC18091CA059091CB05DF
:103B0000E8DF20E030E040E251E46091B2057091DE
:103B1000B3058091B4059091B5050E945C430E9465
:103B20001042CB01D6DF20E030E040E251E460916A
:103B3000B6057091B7058091B8059091B9050E94BE
:103B40005C430E941042CB01C4DF8091CC05909170
:103B5000CD05BFDF20E030E040E251E46091BA05DE
:103B60007091BB058091BC059091BD050E945C439E
:103B70000E941042CB01ADDF8091CE059091CF0520
:103B8000A8DF20E030E040E251E46091BE05709192
:103B9000BF058091C0059091C1050E945C430E94C1
:103BA0001042CB0196DF20E030E040E251E460912A
:103BB000C2057091C3058091C4059091C5050E940E
:103BC0005C430E941042CB0184DF20E030E040E201
:103BD00051E46091C6057091C7058091C805909128
:103BE000C9050E945C430E941042CB0172DFC0ED08
:103BF000D5E002EE15E0899199916BDFC017D107EE
:103C0000D1F789C0CEE6D5E00AE715E06991799150
:103C10008991999120E030E040E251E40E945C43B8
:103C20000E941042CB0155DFC017D10779F7C6E8D3
:103C3000D5E00CE915E0899199914BDFC017D107C8
:103C4000D1F7CAE7D5E006E815E069917991899145
:103C5000999120E030E040E251E40E945C430E94F0
:103C60001042CB0136DFC017D10779F7CCE9D5E098
:103C700002EB15E0899199912CDFC017D107D1F79C
:103C80004AC020E030E040E251E460912E0570919E
:103C90002F0580913005909131050E945C430E9470
:103CA0001042CB0116DF20E030E040E251E46091A9
:103CB00032057091330580913405909135050E944D
:103CC0005C430E941042CB0104DF80913A05909141
:103CD0003B05FFDE20E030E040E251E46091360534
:103CE0007091370580913805909139050E945C43A9
:103CF0000E941042CB01EDDE80913C0590913D0584
:103D0000E8DECEE3D5E00EE615E089919991E1DE9B
:103D1000C017D107D1F7DF91CF911F910F9108956F
:103D20004F925F926F927F928F929F92AF92BF92CB
:103D3000CF92DF92EF92FF920F931F93CF93DF9377
:103D400000D01F92CDB7DEB72B013C0149015A01CB
:103D50006701780128ED3FE049EC50E4C701B60166
:103D60000E945C43A50194010E94A8410E94DF4388
:103D700069837A838B839C83A5019401C701B60173
:103D80000E94A8416B017C0126E839EF42E25EE324
:103D900069817A818B819C810E945C439B01AC018B
:103DA000C701B6010E94DA40A30192010E945C4360
:103DB0000F900F900F900F90DF91CF911F910F9167
:103DC000FF90EF90DF90CF90BF90AF909F908F903B
:103DD0007F906F905F904F9008954F925F926F9297
:103DE0007F928F929F92AF92BF92CF92DF92EF928B
:103DF000FF920F931F93CF93DF9300D01F92CDB705
:103E0000DEB72B013C0149015A016701780128ED19
:103E10003FE049EC50E4C701B6010E945C43A501B4
:103E200094010E94A8410E94DF4369837A838B83B7
:103E30009C83A7019601C701B6010E94DB40A50142
:103E400094010E94A8416B017C0126E839EF42EA07
:103E50005EE369817A818B819C810E945C439B0136
:103E6000AC01C701B6010E94DA4028ED3FE049EC01
:103E70005FE30E945C430E94DF43A30192010E9422
:103E80005C430F900F900F900F90DF91CF911F9197
:103E90000F91FF90EF90DF90CF90BF90AF909F90E9
:103EA0008F907F906F905F904F9008954F925F92A8
:103EB0006F927F928F929F92AF92BF92CF92DF923A
:103EC000EF92FF920F931F93CF93DF9300D01F9237
:103ED000CDB7DEB72B013C0149015A0167017801DA
:103EE00028ED3FE049E450E4C701B6010E945C437D
:103EF000A50194010E94A8410E94DF4369837A834F
:103F00008B839C83A5019401C701B6010E94A8413F
:103F10006B017C0126E839EF42EA5EE369817A8130
:103F20008B819C810E945C439B01AC01C701B6015F
:103F30000E94DA40A30192010E945C430F900F900F
:103F40000F900F90DF91CF911F910F91FF90EF9005
:103F5000DF90CF90BF90AF909F908F907F906F90A9
:103F60005F904F9008954F925F926F927F928F92E1
:103F70009F92AF92BF92CF92DF92EF92FF920F93F8
:103F80001F93CF93DF9300D01F92CDB7DEB72B01E5
:103F90003C0149015A016701780128ED3FE049E4FD
:103FA00050E4C701B6010E945C43A50194010E9440
:103FB000A8410E94DF4369837A838B839C83A50198
:103FC0009401C701B6010E94A8416B017C0126E85B
:103FD00039EF42EA5EE369817A818B819C810E949C
:103FE0005C439B01AC01C701B6010E94DB40A30109
:103FF00092010E945C430F900F900F900F90DF9101
:10400000CF911F910F91FF90EF90DF90CF90BF90D5
:10401000AF909F908F907F906F905F904F9008959A
:104020004F925F926F927F928F929F92AF92BF92C8
:10403000CF92DF92EF92FF920F931F93CF93DF9374
:1040400000D01F92CDB7DEB74B015C0129013A01C8
:104050006701780128ED3FE049E450E4C701B6016B
:104060000E945C43A30192010E94A8410E94DF4389
:1040700069837A838B839C83A3019201C701B60174
:104080000E94A8416B017C0126E839EF42EA5EE319
:1040900069817A818B819C810E945C439B01AC0188
:1040A000C701B6010E94DA40A50194010E945C4359
:1040B0009B01AC01C501B4010E94DA400F900F9042
:1040C0000F900F90DF91CF911F910F91FF90EF9084
:1040D000DF90CF90BF90AF909F908F907F906F9028
:1040E0005F904F9008958F929F92AF92BF92CF9220
:1040F000DF92EF92FF920F931F93CF93DF93CDB791
:10410000DEB72C970FB6F894DEBF0FBECDBF082FD9
:10411000192F61307105C9F487E090E09A83898393
:1041200089E090E09C838B838BE090E09E838D837D
:104130008DE090E098878F838FE090E09A87898761
:1041400081E190E09C878B8718C088E090E09A839B
:1041500089832AE030E03C832B832CE030E03E83EF
:104160002D832EE030E038872F8320E130E03A873E
:10417000298722E130E03C872B8740E050E060E275
:1041800070E08EEF90E00E9421020E94AE008EEF60
:1041900090E00E94B30083E890E00E94B6006EE1D8
:1041A00070E080E090E00E94B90062E070E081E0A1
:1041B00090E00E94B900A02EB12E88248394912C07
:1041C0008C0E9D1E02E010E0F501819191915F013E
:1041D000BC01660F771F680F791F882777FD8095D0
:1041E000982F0E9443420E94BF4320E030E040E00D
:1041F00054E40E94DB400E9410426B017C01F401F8
:10420000619171914F01C8010E94B900C6010E94DD
:10421000DB00BC01C80101960E94B900C6010E94E2
:10422000DF00BC01C80102960E94B9000D5F1F4F5C
:104230000431110549F686E190E00E94BE000E941B
:1042400012020E94AE002C960FB6F894DEBF0FBE8D
:10425000CDBFDF91CF911F910F91FF90EF90DF9035
:10426000CF90BF90AF909F908F9008958F929F9224
:10427000AF92BF92CF92DF92EF92FF920F931F9374
:10428000CF93DF9300D000D0CDB7DEB7082F192F22
:104290006130710569F481E090E09A83898323E0BD
:1042A00030E03C832B8325E030E03E832D830CC03F
:1042B00022E030E03A83298324E030E03C832B8302
:1042C00026E030E03E832D8340E050E060E270E085
:1042D0008EEF90E00E9421020E94AE008EEF90E0EF
:1042E0000E94B30083E890E00E94B6006EE170E0A7
:1042F00080E090E00E94B90062E070E081E090E030
:104300000E94B900A02EB12E88248394912C8C0E8B
:104310009D1E02E010E0F501819191915F01BC01C9
:10432000660F771F680F791F882777FD8095982F74
:104330000E9443420E94BF4320E030E040E054E44A
:104340000E94DB400E9410426B017C01F4016191EC
:1043500071914F01C8010E94B900C6010E94DB00A3
:10436000BC01C80101960E94B900C6010E94DF008D
:10437000BC01C80102960E94B9000D5F1F4F0B30AF
:10438000110549F68DE090E00E94BE000E941202E5
:104390000E94AE0026960FB6F894DEBF0FBECDBFCA
:1043A000DF91CF911F910F91FF90EF90DF90CF9011
:1043B000BF90AF909F908F900895CF93DF93FC01B3
:1043C000EB0180819181A281B38188839983AA8343
:1043D000BB8384859585A685B7858C839D83AE83B5
:1043E000BF83808D918DA28DB38D88879987AA8791
:1043F000BB8784819581A681B7818C879D87AE8795
:10440000BF8780899189A289B389888B998BAA8B70
:10441000BB8B848D958DA68DB78D8C8B9D8BAE8B34
:10442000BF8B4085518562857385488F598F6A8F10
:104430007B8F44895589668977894C8F5D8F6E8F14
:104440007F8F80A191A1A2A1B3A188A399A3AAA3C0
:10445000BBA3DF91CF910895AF92BF92CF92DF922D
:10446000EF92FF920F931F93CF93DF93EC018B0199
:104470005A01FB0120813181428153816881798118
:104480008A819B810E945C436B017C01F801248539
:104490003585468557856C817D818E819F810E94FF
:1044A0005C439B01AC01C701B6010E94DB406B017C
:1044B0007C01F801208D318D428D538D6885798581
:1044C0008A859B850E945C439B01AC01C701B601B4
:1044D0000E94DB40F5016083718382839383F8013E
:1044E0002481358146815781688179818A819B81C8
:1044F0000E945C436B017C01F8012089318942896B
:1045000053896C817D818E819F810E945C439B01D8
:10451000AC01C701B6010E94DB406B017C01F801D0
:10452000248D358D468D578D688579858A859B8547
:104530000E945C439B01AC01C701B6010E94DB40B5
:10454000F5016483758386839783F801208531851F
:1045500042855385688179818A819B810E945C4371
:104560006B017C01F80124893589468957896C8162
:104570007D818E819F810E945C439B01AC01C701BC
:10458000B6010E94DB406B017C01F80120A131A142
:1045900042A153A1688579858A859B850E945C43E9
:1045A0009B01AC01C701B6010E94DB40F5016087A9
:1045B000718782879387F8012081318142815381FD
:1045C0006C857D858E859F850E945C436B017C0197
:1045D000F8012485358546855785688979898A89D2
:1045E0009B890E945C439B01AC01C701B6010E94FC
:1045F000DB406B017C01F801208D318D428D538DA4
:104600006C897D898E899F890E945C439B01AC01E6
:10461000C701B6010E94DB40F50164877587868774
:104620009787F80124813581468157816C857D8586
:104630008E859F850E945C436B017C01F801208977
:10464000318942895389688979898A899B890E943D
:104650005C439B01AC01C701B6010E94DB406B01CA
:104660007C01F801248D358D468D578D6C897D89AF
:104670008E899F890E945C439B01AC01C701B601F2
:104680000E94DB40F501608B718B828B938BF8016C
:1046900020853185428553856C857D858E859F85F6
:1046A0000E945C436B017C01F801248935894689AD
:1046B0005789688979898A899B890E945C439B0113
:1046C000AC01C701B6010E94DB406B017C01F8011F
:1046D00020A131A142A153A16C897D898E899F8936
:1046E0000E945C439B01AC01C701B6010E94DB4004
:1046F000F501648B758B868B978BF8012081318156
:1047000042815381688D798D8A8D9B8D0E945C4397
:104710006B017C01F80124853585468557856C8DB4
:104720007D8D8E8D9F8D0E945C439B01AC01C701E6
:10473000B6010E94DB406B017C01F801208D318DB8
:10474000428D538D68A179A18AA19BA10E945C43EF
:104750009B01AC01C701B6010E94DB40F501608FEF
:10476000718F828F938FF801248135814681578123
:10477000688D798D8A8D9B8D0E945C436B017C01D5
:10478000F80120893189428953896C8D7D8D8E8D08
:104790009F8D0E945C439B01AC01C701B6010E9442
:1047A000DB406B017C01F801248D358D468D578DE2
:1047B00068A179A18AA19BA10E945C439B01AC01E5
:1047C000C701B6010E94DB40F501648F758F868FAB
:1047D000978FF8012085318542855385688D798DC5
:1047E0008A8D9B8D0E945C436B017C01F8012489BA
:1047F0003589468957896C8D7D8D8E8D9F8D0E9460
:104800005C439B01AC01C701B6010E94DB406B0118
:104810007C01F80120A131A142A153A168A179A195
:104820008AA19BA10E945C439B01AC01C701B60118
:104830000E94DB40F50160A371A382A393A3DF91E3
:10484000CF911F910F91FF90EF90DF90CF90BF908D
:10485000AF9008954F925F926F927F928F929F9246
:10486000AF92BF92CF92DF92EF92FF920F931F937E
:10487000CF93DF93CDB7DEB7C858D1400FB6F894C9
:10488000DEBF0FBECDBF2091FA043091FB044091F2
:10489000FC045091FD04CF57DE4F288339834A83AF
:1048A0005B83C158D140C090FE04D090FF04E090DB
:1048B0000005F09001058091020590910305A091FB
:1048C0000405B0910505CB57DE4F88839983AA83F1
:1048D000BB83C558D1408091F4049091F5040E94A7
:1048E0006F172B013C018091F6049091F7040E9410
:1048F0006F174B015C018091F8049091F9040E94BC
:104900006F17CB58DE4FC882D982EA82FB82C55727
:10491000D140CB57DE4F288139814A815B81C55810
:10492000D140C758DE4F288339834A835B83C957F8
:10493000D140CF57DE4F288139814A815B81C158F0
:10494000D140C358DE4F288339834A835B83CD57D8
:10495000D1400F2EFDEFCF2ED12CF02DCC0EDD1E31
:104960007B018C0120E030E0A901CA01B9010E945D
:10497000FB060F2EF9EDCF2ED12CF02DCC0EDD1E27
:10498000E12CF12C8701A3019201C501B4010E9421
:10499000FB06AE014B545F4FB601CE0183509F4FD3
:1049A0005BDD20917E0530917F054091800550911F
:1049B000810560911005709111058091120590910B
:1049C00013050E94DB40C759DE4F688379838A83D1
:1049D0009B83C956D1402091820530918305409137
:1049E000840550918505609114057091150580919D
:1049F0001605909117050E94DB40C359DE4F68836E
:104A000079838A839B83CD56D14020917A0530915A
:104A10007B0540917C0550917D0560910C0570915E
:104A20000D0580910E0590910F050E94DB40CF5837
:104A3000DE4F688379838A839B83C157D140AE015F
:104A4000435A5E4FBE0167597E4FCE018B589E4F31
:104A50000E943708AE014F5A5E4FBE016B547F4F24
:104A6000CE01835A9E4F0E94DC09CF5ADE4F288127
:104A70003981C155D14080919C0590919D05820F4F
:104A8000931FCF5ADE4F99838883C155D1408091BF
:104A90002C0590912D05892B09F45AC0CD5ADE4F73
:104AA00088819981C355D1402091A6053091A705F1
:104AB000821B930BCD5ADE4F99838883C355D14017
:104AC000CB5ADE4F88819981C555D1402091A205EE
:104AD0003091A305821B930BCB5ADE4F99838883B9
:104AE000C555D140C95ADE4F28813981C755D140BB
:104AF0008091A0059091A105820F931FC95ADE4FA6
:104B000099838883C755D140C75ADE4F88819981E0
:104B1000C955D14020919E0530919F05821B930B72
:104B2000C75ADE4F99838883C955D140C55ADE4F95
:104B300028813981CB55D1408091A4059091A5055C
:104B4000820F931FC55ADE4F99838883CB55D1407E
:104B500080911C0590911D050E946F170F2EF1E9A1
:104B6000CF2ED12CF02DCC0EDD1E7B018C0120E050
:104B700030E0A901CA01B9010E94FB06BE01675BD2
:104B80007F4FCE018B549F4F18DCAE0143595F4FCE
:104B9000B601CE01875B9F4F5FDC2091720530919B
:104BA00073054091740550917505609122057091CF
:104BB000230580912405909125050E94DB40CB5B65
:104BC000DE4F688379838A839B83C554D1402091CB
:104BD000760530917705409178055091790560917F
:104BE00026057091270580912805909129050E943E
:104BF000DB40C75BDE4F688379838A839B83C9541C
:104C0000D14020916E0530916F0540917005509113
:104C1000710560911E0570911F058091200590918E
:104C200021050E94DB40C35BDE4F688379838A8362
:104C30009B83CD54D140AE01475C5E4FBE016B5BA0
:104C40007E4FCE018B589E4F0E943708BE016B5D90
:104C50007F4FC601B2DBAE01435D5E4FBE01675CB4
:104C60007E4FCE0185960E947708BE016F5F7F4F11
:104C7000CE0183599F4FA1DBAE014F5D5E4FBE0158
:104C80006F5F7F4FCE01835D9E4F0E94C310CF5D4B
:104C9000DE4F28813981C152D140809186059091A3
:104CA0008705820F931FCF5DDE4F99838883C152A2
:104CB000D14080912C0590912D05892B09F45AC083
:104CC000CD5DDE4F28813981C352D14080919A0554
:104CD00090919B05820F931FCD5DDE4F9983888352
:104CE000C352D140CB5DDE4F28813981C552D140BE
:104CF0008091960590919705820F931FCB5DDE4FB3
:104D000099838883C552D140C95DDE4F288139819E
:104D1000C752D1408091940590919505820F931FC1
:104D2000C95DDE4F99838883C752D140C75DDE4F8E
:104D300028813981C952D140809192059091930583
:104D4000820F931FC75DDE4F99838883C952D1407C
:104D5000C55DDE4F88819981CB52D1402091980565
:104D600030919905821B930BC55DDE4F9983888333
:104D7000CB52D14061E070E0CE018F5A9E4FB3D943
:104D800062E070E0CE018F5D9E4FADD961E070E0D2
:104D900088EE95E06BDA62E070E082EE95E066DA2C
:104DA000C857DE4F0FB6F894DEBF0FBECDBFDF9100
:104DB000CF911F910F91FF90EF90DF90CF90BF9018
:104DC000AF909F908F907F906F905F904F900895DD
:104DD0004F925F926F927F928F929F92AF92BF920B
:104DE000CF92DF92EF92FF920F931F93CF93DF93B7
:104DF000CDB7DEB7CC58D1400FB6F894DEBF0FBEAA
:104E0000CDBF8091FA049091FB04A091FC04B09175
:104E1000FD04CF57DE4F88839983AA83BB83C15893
:104E2000D1408091FE049091FF04A0910005B091C3
:104E30000105CB57DE4F88839983AA83BB83C5586E
:104E4000D1408091020590910305A0910405B09195
:104E50000505C757DE4F88839983AA83BB83C9584A
:104E6000D1408091F4049091F5040E946F172B01BA
:104E70003C018091F6049091F7040E946F174B015A
:104E80005C018091F8049091F9040E946F170F2E35
:104E9000FDEFCF2ED12CF02DCC0EDD1E7B018C0131
:104EA00020E030E0A901CA01B9010E94FB060F2EE3
:104EB000F9EDCF2ED12CF02DCC0EDD1EE12CF12CF6
:104EC0008701A3019201C501B4010E94FB06AE0156
:104ED0004B545F4FB601CE0183509F4FBDDACB5785
:104EE000DE4F88819981AA81BB81C558D140CB58BA
:104EF000DE4F88839983AA83BB83C557D140C757A8
:104F0000DE4F88819981AA81BB81C958D140C75899
:104F1000DE4F88839983AA83BB83C957D140CF577B
:104F2000DE4F88819981AA81BB81C158D140C35885
:104F3000DE4F88839983AA83BB83CD57D1402091CC
:104F4000720530917305409174055091750560911B
:104F500022057091230580912405909125050E94DA
:104F6000DB40C759DE4F688379838A839B83C956A8
:104F7000D140209176053091770540917805509188
:104F800079056091260570912705809128059091FB
:104F900029050E94DB40C359DE4F688379838A83E9
:104FA0009B83CD56D14020916E0530916F05409185
:104FB00070055091710560911E0570911F058091DB
:104FC0002005909121050E94DB40CF58DE4F688379
:104FD00079838A839B83C157D140AE01435A5E4F88
:104FE000BE0167597E4FCE018B589E4F0E943708F5
:104FF000AE014F5A5E4FBE016B547F4FCE01835AB4
:105000009E4F0E94C310CF5ADE4F28813981C1556F
:10501000D1408091860590918705820F931FCF5ACA
:10502000DE4F99838883C155D14080912A059091A4
:105030002B05892B09F45AC0CD5ADE4F28813981BE
:10504000C355D1408091900590919105820F931F97
:10505000CD5ADE4F99838883C355D140CB5ADE4F5A
:1050600028813981C555D14080918C0590918D055D
:10507000820F931FCB5ADE4F99838883C555D14049
:10508000C95ADE4F88819981C755D14020918A0540
:1050900030918B05821B930BC95ADE4F998388830D
:1050A000C755D140C75ADE4F28813981C955D140F3
:1050B0008091880590918905820F931FC75ADE4F12
:1050C00099838883C955D140C55ADE4F888199811B
:1050D000CB55D14020918E0530918F05821B930BCB
:1050E000C55ADE4F99838883CB55D14080910A05FC
:1050F00090910B050E946F170F2EF1E9CF2ED12C46
:10510000F02DCC0EDD1E7B018C0120E030E0A901EA
:10511000CA01B9010E94FB06BE0163597F4FCE014F
:105120008B549F4F4AD9AE01475B5F4FB601CE010A
:1051300083599F4F91D920917E0530917F054091F1
:105140008005509181056091100570911105809145
:105150001205909113050E94DB40CB5BDE4F688304
:1051600079838A839B83C554D140209182053091F5
:1051700083054091840550918505609114057091D7
:10518000150580911605909117050E94DB40C75BBD
:10519000DE4F688379838A839B83C954D1402091F1
:1051A0007A0530917B0540917C0550917D05609199
:1051B0000C0570910D0580910E0590910F050E94D0
:1051C000DB40C35BDE4F688379838A839B83CD5446
:1051D000D140AE01475C5E4FBE016B5B7E4FCE019E
:1051E0008B589E4F0E943708BE016B5D7F4FCE01EA
:1051F000875B9F4FE2D8BE016F5F7F4FC601DDD84E
:10520000AE014F5D5E4FBE01675C7E4FCE010196E1
:105210000E947708AE01435D5E4FBE016B5D7F4F1C
:10522000CE018F5D9E4F0E94DC09C35DDE4F288159
:105230003981CD52D14080919C0590919D05820F7E
:10524000931FC35DDE4F99838883CD52D1408091F7
:105250002A0590912B05892B09F45AC0C15DDE4FB8
:1052600088819981CF52D1402091B0053091B1050C
:10527000821B930BC15DDE4F99838883CF52D1404F
:10528000CF5CDE4F88819981C153D1402091AC051C
:105290003091AD05821B930BCF5CDE4F99838883E1
:1052A000C153D140CD5CDE4F88819981C353D14039
:1052B0002091AA053091AB05821B930BCD5CDE4F8C
:1052C00099838883C353D140CB5CDE4F8881998119
:1052D000C553D1402091A8053091A905821B930B9D
:1052E000CB5CDE4F99838883C553D140C95CDE4FC8
:1052F00028813981C753D1408091AE059091AF0587
:10530000820F931FC95CDE4F99838883C753D140B6
:1053100061E070E0CE01835D9E4F0E94732062E0E9
:1053200070E0CE018F5A9E4F0E94732061E070E0C2
:1053300088EE95E00E94362162E070E082EE95E012
:105340000E943621C457DE4F0FB6F894DEBF0FBE61
:10535000CDBFDF91CF911F910F91FF90EF90DF9024
:10536000CF90BF90AF909F908F907F906F905F9005
:105370004F9008954F925F926F927F928F929F927B
:10538000AF92BF92CF92DF92EF92FF920F931F9353
:10539000CF93DF93CDB7DEB7C854D1090FB6F894D9
:1053A000DEBF0FBECDBF6B017C0181E090E09EA30C
:1053B0008DA382E090E098A78FA383E090E09AA766
:1053C00089A784E090E09CA78BA785E090E09EA74A
:1053D0008DA786E090E098AB8FA787E090E09AAB2E
:1053E00089AB88E090E09CAB8BAB89E090E09EAB12
:1053F0008DAB8AE090E098AF8FAB8BE090E09AAFF6
:1054000089AF8CE090E09CAF8BAF8DE090E09EAFD9
:105410008DAF8EE090E021969FAF8EAF21978FE009
:1054200090E023969FAF8EAF239780E190E0259682
:105430009FAF8EAF259781E190E027969FAF8EAF0B
:10544000279782E190E029969FAF8EAF29978091B0
:10545000F2049091F30484349105B9F05CF4823441
:10546000910509F489C10CF08DC18134910509F0D1
:105470008FC159C08634910509F4C0C00CF45FC0D7
:105480008734910509F084C118C10F2EF8E26F2E00
:10549000712CF02DC701B6010E941042CB010E9471
:1054A00036057E0185E2E80EF11C8E010F5F1F4F6D
:1054B0004701E4E28E0E911C44244A94542CF701D7
:1054C000C190D1907F01B301C6010E943A025801F8
:1054D000F801918380830E94AE000297C8F0B30167
:1054E000C6010E943A02F801918380830E94AE00B7
:1054F000029770F0B301C6010E943A02F80191834D
:1055000080830E94AE00029718F0F8015182408219
:105510000E5F1F4FF501808191810E943605E814CE
:10552000F90469F635C1C701B6010E941042CB01EA
:105530000E94360582E190E00197F1F729C18FEFD3
:105540009FEF0E94691D8FEF9FEF0E94691D8FEFF3
:105550009FEF0E94691DC701B6010E941042CB0156
:105560000E94691D20E030E040E251E46091FA04BD
:105570007091FB048091FC049091FD040E945C43B7
:105580000E941042CB010E94691D20E030E040E201
:1055900051E46091FE047091FF04809100059091A8
:1055A00001050E945C430E941042CB010E94691DCC
:1055B00020E030E040E251E4609102057091030583
:1055C00080910405909105050E945C430E94104261
:1055D000CB010E94691D8091F4049091F5040E9412
:1055E000691D8091F6049091F7040E94691D8091D5
:1055F000F8049091F9040E94691DCAC08FEF9FEFD3
:105600000E94691D8FEF9FEF0E94691D8FEF9FEF32
:105610000E94691DC701B6010E941042CB010E9481
:10562000360520E030E040E251E460910C057091D5
:105630000D0580910E0590910F050E945C430E941C
:105640001042CB010E94360520E030E040E251E4F8
:1056500060911005709111058091120590911305CC
:105660000E945C430E941042CB010E94360520E05C
:1056700030E040E251E4609114057091150580918D
:105680001605909117050E945C430E941042CB01C1
:105690000E94360580910605909107050E94360507
:1056A00080910805909109050E94360580910A05B0
:1056B00090910B050E9436056BC08FEF9FEF0E9403
:1056C000691D8FEF9FEF0E94691D8FEF9FEF0E9472
:1056D000691DC701B6010E941042CB010E94360528
:1056E00020E030E040E251E460911E0570911F051A
:1056F00080912005909121050E945C430E941042F8
:10570000CB010E94360520E030E040E251E4609198
:1057100022057091230580912405909125050E9412
:105720005C430E941042CB010E94360520E030E02D
:1057300040E251E46091260570912705809128058B
:10574000909129050E945C430E941042CB010E9467
:10575000360580911805909119050E9436058091B3
:105760001A0590911B050E94360580911C059091A9
:105770001D050E9436050CC00F2EFEE16F2E712C08
:10578000F02D88CE0F2EF4E26F2E712CF02D82CEEC
:10579000C85BDF4F0FB6F894DEBF0FBECDBFDF9101
:1057A000CF911F910F91FF90EF90DF90CF90BF901E
:1057B000AF909F908F907F906F905F904F900895E3
:1057C0002F923F924F925F926F927F928F929F9211
:1057D000AF92BF92CF92DF92EF92FF920F931F93FF
:1057E000CF93DF93CDB7DEB7C35AD1090FB6F89484
:1057F000DEBF0FBECDBF1C0183309105F9F03CF434
:1058000081309105D9F08230910551F40EC085E0C8
:105810002816310499F04CF0A6E02A16310429F03C
:105820001A8E1B8E1C8E1D8E11C020E030E040E8C9
:105830005FE32A8F3B8F4C8F5D8F08C080E090E044
:10584000A0E8BFEB8A8F9B8FAC8FBD8F2091B205F4
:105850003091B3054091B4055091B505AC962CAF8D
:105860003DAF4EAF5FAFAC978091B6059091B70555
:10587000A091B805B091B905E0968CAF9DAFAEAFE1
:10588000BFAFE0976091CC057091CD05882777FD7B
:105890008095982F0E944342E1966FAFE197E29680
:1058A0007FAFE297E3968FAFE397E4969FAFE497DD
:1058B0002091BA053091BB054091BC055091BD05C2
:1058C0002A962CAF3DAF4EAF5FAF2A976091CE05C1
:1058D0007091CF05882777FD8095982F0E944342CD
:1058E0006F966FAF6F97A0967FAFA097A1968FAF7F
:1058F000A197A2969FAFA2978091BE059091BF05F8
:10590000A091C005B091C1058FA398A7A9A7BAA778
:105910004090C2055090C3056090C4057090C505C5
:105920002091C6053091C7054091C8055091C90521
:10593000CA56DF4F288339834A835B83C659D040D8
:10594000A090D005B090D105B501882777FD80954E
:10595000982F0E944342462F572F682F792F4EAB26
:105960005FAB68AF79AF6091D2057091D30588279E
:1059700077FD8095982F0E9443426983C72ED82EC9
:10598000092F6091D8057091D905882777FD8095FA
:10599000982F0E944342A5966FAFA597A6967FAF1A
:1059A000A697A7968FAFA797A8969FAFA897409165
:1059B000DA055091DB056C965FAF4EAF6C97BA017C
:1059C000882777FD8095982F0E9443426A837B83C6
:1059D0008C8399876EA77FA788AB99AB6091DC0514
:1059E0007091DD05882777FD8095982F0E944342AE
:1059F000162F7B87F82EE92EC657DF4F6883CA58CB
:105A0000D040C557DF4F7883CB58D040C457DF4FC5
:105A10008883CC58D040C357DF4F9883CD58D040AF
:105A20006091DE057091DF05882777FD8095982FBE
:105A30000E944342CA57DF4F6883C658D040C957B7
:105A4000DF4F7883C758D040C857DF4F8883C85886
:105A5000D040C757DF4F9883C958D0406091E005C8
:105A60007091E105882777FD8095982F0E94434229
:105A700067966FAF679768967FAF689769968FAFA5
:105A800069976A969FAF6A97C5010E946F174B018D
:105A90005C010E94A5416D837E838F839887C50139
:105AA000B4010E94DF434B015C0120E030E040E89C
:105AB0005FE36D817E818F8198850E94DA402AE9BB
:105AC00039E949E950E40E945C43CE56DF4F6883D0
:105AD000C259D040CD56DF4F7883C359D040CC5601
